{
  "contractName": "Agent",
  "abi": [
    {
      "constant": true,
      "inputs": [],
      "name": "endpoint",
      "outputs": [
        {
          "name": "",
          "type": "string"
        }
      ],
      "payable": false,
      "stateMutability": "view",
      "type": "function"
    },
    {
      "constant": true,
      "inputs": [],
      "name": "owner",
      "outputs": [
        {
          "name": "",
          "type": "address"
        }
      ],
      "payable": false,
      "stateMutability": "view",
      "type": "function"
    },
    {
      "constant": true,
      "inputs": [
        {
          "name": "",
          "type": "address"
        }
      ],
      "name": "createdJobs",
      "outputs": [
        {
          "name": "",
          "type": "bool"
        }
      ],
      "payable": false,
      "stateMutability": "view",
      "type": "function"
    },
    {
      "constant": true,
      "inputs": [],
      "name": "currentPrice",
      "outputs": [
        {
          "name": "",
          "type": "uint256"
        }
      ],
      "payable": false,
      "stateMutability": "view",
      "type": "function"
    },
    {
      "constant": true,
      "inputs": [],
      "name": "definition",
      "outputs": [
        {
          "name": "",
          "type": "string"
        }
      ],
      "payable": false,
      "stateMutability": "view",
      "type": "function"
    },
    {
      "constant": true,
      "inputs": [],
      "name": "state",
      "outputs": [
        {
          "name": "",
          "type": "uint8"
        }
      ],
      "payable": false,
      "stateMutability": "view",
      "type": "function"
    },
    {
      "constant": true,
      "inputs": [],
      "name": "token",
      "outputs": [
        {
          "name": "",
          "type": "address"
        }
      ],
      "payable": false,
      "stateMutability": "view",
      "type": "function"
    },
    {
      "inputs": [
        {
          "name": "_token",
          "type": "address"
        },
        {
          "name": "_currentPrice",
          "type": "uint256"
        },
        {
          "name": "_endpoint",
          "type": "string"
        },
        {
          "name": "_definition",
          "type": "string"
        }
      ],
      "payable": false,
      "stateMutability": "nonpayable",
      "type": "constructor"
    },
    {
      "anonymous": false,
      "inputs": [
        {
          "indexed": false,
          "name": "job",
          "type": "address"
        },
        {
          "indexed": false,
          "name": "consumer",
          "type": "address"
        },
        {
          "indexed": false,
          "name": "jobPrice",
          "type": "uint256"
        }
      ],
      "name": "JobCreated",
      "type": "event"
    },
    {
      "anonymous": false,
      "inputs": [
        {
          "indexed": false,
          "name": "job",
          "type": "address"
        }
      ],
      "name": "JobFunded",
      "type": "event"
    },
    {
      "anonymous": false,
      "inputs": [
        {
          "indexed": false,
          "name": "job",
          "type": "address"
        }
      ],
      "name": "JobCompleted",
      "type": "event"
    },
    {
      "constant": false,
      "inputs": [
        {
          "name": "_currentPrice",
          "type": "uint256"
        }
      ],
      "name": "setPrice",
      "outputs": [],
      "payable": false,
      "stateMutability": "nonpayable",
      "type": "function"
    },
    {
      "constant": false,
      "inputs": [
        {
          "name": "_endpoint",
          "type": "string"
        }
      ],
      "name": "setEndpoint",
      "outputs": [],
      "payable": false,
      "stateMutability": "nonpayable",
      "type": "function"
    },
    {
      "constant": false,
      "inputs": [
        {
          "name": "_definition",
          "type": "string"
        }
      ],
      "name": "setDefinition",
      "outputs": [],
      "payable": false,
      "stateMutability": "nonpayable",
      "type": "function"
    },
    {
      "constant": false,
      "inputs": [],
      "name": "disable",
      "outputs": [],
      "payable": false,
      "stateMutability": "nonpayable",
      "type": "function"
    },
    {
      "constant": false,
      "inputs": [],
      "name": "enable",
      "outputs": [],
      "payable": false,
      "stateMutability": "nonpayable",
      "type": "function"
    },
    {
      "constant": false,
      "inputs": [],
      "name": "createJob",
      "outputs": [
        {
          "name": "",
          "type": "address"
        },
        {
          "name": "",
          "type": "uint256"
        }
      ],
      "payable": false,
      "stateMutability": "nonpayable",
      "type": "function"
    },
    {
      "constant": false,
      "inputs": [],
      "name": "fundJob",
      "outputs": [],
      "payable": false,
      "stateMutability": "nonpayable",
      "type": "function"
    },
    {
      "constant": true,
      "inputs": [
        {
          "name": "job",
          "type": "address"
        },
        {
          "name": "v",
          "type": "uint8"
        },
        {
          "name": "r",
          "type": "bytes32"
        },
        {
          "name": "s",
          "type": "bytes32"
        }
      ],
      "name": "validateJobInvocation",
      "outputs": [
        {
          "name": "",
          "type": "bool"
        }
      ],
      "payable": false,
      "stateMutability": "view",
      "type": "function"
    },
    {
      "constant": false,
      "inputs": [
        {
          "name": "job",
          "type": "address"
        },
        {
          "name": "v",
          "type": "uint8"
        },
        {
          "name": "r",
          "type": "bytes32"
        },
        {
          "name": "s",
          "type": "bytes32"
        }
      ],
      "name": "completeJob",
      "outputs": [],
      "payable": false,
      "stateMutability": "nonpayable",
      "type": "function"
    }
  ],
  "bytecode": "0x60806040523480156200001157600080fd5b506040516200220d3803806200220d8339810180604052810190808051906020019092919080519060200190929190805182019291906020018051820192919050505060008060006101000a81548160ff021916908360018111156200007357fe5b021790555032600060016101000a81548173ffffffffffffffffffffffffffffffffffffffff021916908373ffffffffffffffffffffffffffffffffffffffff16021790555083600160006101000a81548173ffffffffffffffffffffffffffffffffffffffff021916908373ffffffffffffffffffffffffffffffffffffffff160217905550826003819055508160049080519060200190620001199291906200013d565b508060059080519060200190620001329291906200013d565b5050505050620001ec565b828054600181600116156101000203166002900490600052602060002090601f016020900481019282601f106200018057805160ff1916838001178555620001b1565b82800160010185558215620001b1579182015b82811115620001b057825182559160200191906001019062000193565b5b509050620001c09190620001c4565b5090565b620001e991905b80821115620001e5576000816000905550600101620001cb565b5090565b90565b61201180620001fc6000396000f3006080604052600436106100e6576000357c0100000000000000000000000000000000000000000000000000000000900463ffffffff1680630a8ec587146100eb5780632f2770db1461016f5780635b6b5710146101865780635e280f11146101e45780638da5cb5b1461027457806391b7f5ed146102cb57806394715ac4146102f85780639d1b464a14610353578063a3907d711461037e578063aab8f0a714610395578063bb9df86e14610425578063bc856b9814610491578063c19d93fb146104fa578063dc3f5e8014610533578063ef47243d1461059c578063fc0c546a146105b3575b600080fd5b3480156100f757600080fd5b50610155600480360381019080803573ffffffffffffffffffffffffffffffffffffffff169060200190929190803560ff1690602001909291908035600019169060200190929190803560001916906020019092919050505061060a565b604051808215151515815260200191505060405180910390f35b34801561017b57600080fd5b5061018461091e565b005b34801561019257600080fd5b5061019b6109d2565b604051808373ffffffffffffffffffffffffffffffffffffffff1673ffffffffffffffffffffffffffffffffffffffff1681526020018281526020019250505060405180910390f35b3480156101f057600080fd5b506101f9610c37565b6040518080602001828103825283818151815260200191508051906020019080838360005b8381101561023957808201518184015260208101905061021e565b50505050905090810190601f1680156102665780820380516001836020036101000a031916815260200191505b509250505060405180910390f35b34801561028057600080fd5b50610289610cd5565b604051808273ffffffffffffffffffffffffffffffffffffffff1673ffffffffffffffffffffffffffffffffffffffff16815260200191505060405180910390f35b3480156102d757600080fd5b506102f660048036038101908080359060200190929190505050610cfb565b005b34801561030457600080fd5b50610339600480360381019080803573ffffffffffffffffffffffffffffffffffffffff169060200190929190505050610d61565b604051808215151515815260200191505060405180910390f35b34801561035f57600080fd5b50610368610d81565b6040518082815260200191505060405180910390f35b34801561038a57600080fd5b50610393610d87565b005b3480156103a157600080fd5b506103aa610e3a565b6040518080602001828103825283818151815260200191508051906020019080838360005b838110156103ea5780820151818401526020810190506103cf565b50505050905090810190601f1680156104175780820380516001836020036101000a031916815260200191505b509250505060405180910390f35b34801561043157600080fd5b5061048f600480360381019080803573ffffffffffffffffffffffffffffffffffffffff169060200190929190803560ff16906020019092919080356000191690602001909291908035600019169060200190929190505050610ed8565b005b34801561049d57600080fd5b506104f8600480360381019080803590602001908201803590602001908080601f0160208091040260200160405190810160405280939291908181526020018383808284378201915050505050509192919290505050611273565b005b34801561050657600080fd5b5061050f6112e9565b6040518082600181111561051f57fe5b60ff16815260200191505060405180910390f35b34801561053f57600080fd5b5061059a600480360381019080803590602001908201803590602001908080601f01602080910402602001604051908101604052809392919081815260200183838082843782019150505050505091929192905050506112fb565b005b3480156105a857600080fd5b506105b1611371565b005b3480156105bf57600080fd5b506105c86114f7565b604051808273ffffffffffffffffffffffffffffffffffffffff1673ffffffffffffffffffffffffffffffffffffffff16815260200191505060405180910390f35b6000600260008673ffffffffffffffffffffffffffffffffffffffff1673ffffffffffffffffffffffffffffffffffffffff16815260200190815260200160002060009054906101000a900460ff16801561071957506001600281111561066d57fe5b8573ffffffffffffffffffffffffffffffffffffffff1663c19d93fb6040518163ffffffff167c0100000000000000000000000000000000000000000000000000000000028152600401602060405180830381600087803b1580156106d157600080fd5b505af11580156106e5573d6000803e3d6000fd5b505050506040513d60208110156106fb57600080fd5b8101908080519060200190929190505050600281111561071757fe5b145b801561090357508473ffffffffffffffffffffffffffffffffffffffff1663b4fd72966040518163ffffffff167c0100000000000000000000000000000000000000000000000000000000028152600401602060405180830381600087803b15801561078457600080fd5b505af1158015610798573d6000803e3d6000fd5b505050506040513d60208110156107ae57600080fd5b810190808051906020019092919050505073ffffffffffffffffffffffffffffffffffffffff16600186604051808273ffffffffffffffffffffffffffffffffffffffff1673ffffffffffffffffffffffffffffffffffffffff166c01000000000000000000000000028152601401915050604051809103902060405180807f19457468657265756d205369676e6564204d6573736167653a0a333200000000815250601c0182600019166000191681526020019150506040518091039020868686604051600081526020016040526040518085600019166000191681526020018460ff1660ff1681526020018360001916600019168152602001826000191660001916815260200194505050505060206040516020810390808403906000865af11580156108e1573d6000803e3d6000fd5b5050506020604051035173ffffffffffffffffffffffffffffffffffffffff16145b156109115760019050610916565b600090505b949350505050565b6000600181111561092b57fe5b6000809054906101000a900460ff16600181111561094557fe5b14151561095157600080fd5b600060019054906101000a900473ffffffffffffffffffffffffffffffffffffffff1673ffffffffffffffffffffffffffffffffffffffff163273ffffffffffffffffffffffffffffffffffffffff161415156109ad57600080fd5b60016000806101000a81548160ff021916908360018111156109cb57fe5b0217905550565b60008060008060018111156109e357fe5b6000809054906101000a900460ff1660018111156109fd57fe5b141515610a0957600080fd5b600160009054906101000a900473ffffffffffffffffffffffffffffffffffffffff16600354610a3761151d565b808373ffffffffffffffffffffffffffffffffffffffff1673ffffffffffffffffffffffffffffffffffffffff16815260200182815260200192505050604051809103906000f080158015610a90573d6000803e3d6000fd5b5090506001600260008373ffffffffffffffffffffffffffffffffffffffff1673ffffffffffffffffffffffffffffffffffffffff16815260200190815260200160002060006101000a81548160ff0219169083151502179055507fa746868d6453f8bae4369a738168c9b369a52f877ee08ab4c0dd0448b903d37f818273ffffffffffffffffffffffffffffffffffffffff1663b4fd72966040518163ffffffff167c0100000000000000000000000000000000000000000000000000000000028152600401602060405180830381600087803b158015610b7157600080fd5b505af1158015610b85573d6000803e3d6000fd5b505050506040513d6020811015610b9b57600080fd5b8101908080519060200190929190505050600354604051808473ffffffffffffffffffffffffffffffffffffffff1673ffffffffffffffffffffffffffffffffffffffff1681526020018373ffffffffffffffffffffffffffffffffffffffff1673ffffffffffffffffffffffffffffffffffffffff168152602001828152602001935050505060405180910390a18060035492509250509091565b60048054600181600116156101000203166002900480601f016020809104026020016040519081016040528092919081815260200182805460018160011615610100020316600290048015610ccd5780601f10610ca257610100808354040283529160200191610ccd565b820191906000526020600020905b815481529060010190602001808311610cb057829003601f168201915b505050505081565b600060019054906101000a900473ffffffffffffffffffffffffffffffffffffffff1681565b600060019054906101000a900473ffffffffffffffffffffffffffffffffffffffff1673ffffffffffffffffffffffffffffffffffffffff163273ffffffffffffffffffffffffffffffffffffffff16141515610d5757600080fd5b8060038190555050565b60026020528060005260406000206000915054906101000a900460ff1681565b60035481565b600180811115610d9357fe5b6000809054906101000a900460ff166001811115610dad57fe5b141515610db957600080fd5b600060019054906101000a900473ffffffffffffffffffffffffffffffffffffffff1673ffffffffffffffffffffffffffffffffffffffff163273ffffffffffffffffffffffffffffffffffffffff16141515610e1557600080fd5b60008060006101000a81548160ff02191690836001811115610e3357fe5b0217905550565b60058054600181600116156101000203166002900480601f016020809104026020016040519081016040528092919081815260200182805460018160011615610100020316600290048015610ed05780601f10610ea557610100808354040283529160200191610ed0565b820191906000526020600020905b815481529060010190602001808311610eb357829003601f168201915b505050505081565b600260008573ffffffffffffffffffffffffffffffffffffffff1673ffffffffffffffffffffffffffffffffffffffff16815260200190815260200160002060009054906101000a900460ff161515610f3057600080fd5b8373ffffffffffffffffffffffffffffffffffffffff16636a3e83b38484846040518463ffffffff167c0100000000000000000000000000000000000000000000000000000000028152600401808460ff1660ff168152602001836000191660001916815260200182600019166000191681526020019350505050602060405180830381600087803b158015610fc557600080fd5b505af1158015610fd9573d6000803e3d6000fd5b505050506040513d6020811015610fef57600080fd5b8101908080519060200190929190505050151561100b57600080fd5b600160009054906101000a900473ffffffffffffffffffffffffffffffffffffffff1673ffffffffffffffffffffffffffffffffffffffff166323b872dd85600060019054906101000a900473ffffffffffffffffffffffffffffffffffffffff168773ffffffffffffffffffffffffffffffffffffffff1663556a61216040518163ffffffff167c0100000000000000000000000000000000000000000000000000000000028152600401602060405180830381600087803b1580156110d157600080fd5b505af11580156110e5573d6000803e3d6000fd5b505050506040513d60208110156110fb57600080fd5b81019080805190602001909291905050506040518463ffffffff167c0100000000000000000000000000000000000000000000000000000000028152600401808473ffffffffffffffffffffffffffffffffffffffff1673ffffffffffffffffffffffffffffffffffffffff1681526020018373ffffffffffffffffffffffffffffffffffffffff1673ffffffffffffffffffffffffffffffffffffffff1681526020018281526020019350505050602060405180830381600087803b1580156111c457600080fd5b505af11580156111d8573d6000803e3d6000fd5b505050506040513d60208110156111ee57600080fd5b8101908080519060200190929190505050151561120a57600080fd5b7fa7ce9489b811cd79bb8695d6ad4051484c96aea68805ffa76eea626f7121f80084604051808273ffffffffffffffffffffffffffffffffffffffff1673ffffffffffffffffffffffffffffffffffffffff16815260200191505060405180910390a150505050565b600060019054906101000a900473ffffffffffffffffffffffffffffffffffffffff1673ffffffffffffffffffffffffffffffffffffffff163273ffffffffffffffffffffffffffffffffffffffff161415156112cf57600080fd5b80600490805190602001906112e592919061152d565b5050565b6000809054906101000a900460ff1681565b600060019054906101000a900473ffffffffffffffffffffffffffffffffffffffff1673ffffffffffffffffffffffffffffffffffffffff163273ffffffffffffffffffffffffffffffffffffffff1614151561135757600080fd5b806005908051906020019061136d92919061152d565b5050565b6000339050600260008273ffffffffffffffffffffffffffffffffffffffff1673ffffffffffffffffffffffffffffffffffffffff16815260200190815260200160002060009054906101000a900460ff1615156113ce57600080fd5b600060028111156113db57fe5b8173ffffffffffffffffffffffffffffffffffffffff1663c19d93fb6040518163ffffffff167c0100000000000000000000000000000000000000000000000000000000028152600401602060405180830381600087803b15801561143f57600080fd5b505af1158015611453573d6000803e3d6000fd5b505050506040513d602081101561146957600080fd5b8101908080519060200190929190505050600281111561148557fe5b14151561149157600080fd5b7f0fb2f12acb9930f9d48a95b9614dd225d181403301c8c740dd760fe9698aeafd81604051808273ffffffffffffffffffffffffffffffffffffffff1673ffffffffffffffffffffffffffffffffffffffff16815260200191505060405180910390a150565b600160009054906101000a900473ffffffffffffffffffffffffffffffffffffffff1681565b604051610a13806115d383390190565b828054600181600116156101000203166002900490600052602060002090601f016020900481019282601f1061156e57805160ff191683800117855561159c565b8280016001018555821561159c579182015b8281111561159b578251825591602001919060010190611580565b5b5090506115a991906115ad565b5090565b6115cf91905b808211156115cb5760008160009055506001016115b3565b5090565b905600608060405234801561001057600080fd5b50604051604080610a138339810180604052810190808051906020019092919080519060200190929190505050816000806101000a81548173ffffffffffffffffffffffffffffffffffffffff021916908373ffffffffffffffffffffffffffffffffffffffff1602179055508060018190555032600260006101000a81548173ffffffffffffffffffffffffffffffffffffffff021916908373ffffffffffffffffffffffffffffffffffffffff16021790555033600360006101000a81548173ffffffffffffffffffffffffffffffffffffffff021916908373ffffffffffffffffffffffffffffffffffffffff1602179055506000600360146101000a81548160ff0219169083600281111561012557fe5b021790555050506108d88061013b6000396000f300608060405260043610610083576000357c0100000000000000000000000000000000000000000000000000000000900463ffffffff168063556a6121146100885780636a3e83b3146100b3578063b4fd729614610117578063c19d93fb1461016e578063ef47243d146101a7578063f5ff5c76146101be578063fc0c546a14610215575b600080fd5b34801561009457600080fd5b5061009d61026c565b6040518082815260200191505060405180910390f35b3480156100bf57600080fd5b506100fd600480360381019080803560ff16906020019092919080356000191690602001909291908035600019169060200190929190505050610272565b604051808215151515815260200191505060405180910390f35b34801561012357600080fd5b5061012c6105a2565b604051808273ffffffffffffffffffffffffffffffffffffffff1673ffffffffffffffffffffffffffffffffffffffff16815260200191505060405180910390f35b34801561017a57600080fd5b506101836105c8565b6040518082600281111561019357fe5b60ff16815260200191505060405180910390f35b3480156101b357600080fd5b506101bc6105db565b005b3480156101ca57600080fd5b506101d3610861565b604051808273ffffffffffffffffffffffffffffffffffffffff1673ffffffffffffffffffffffffffffffffffffffff16815260200191505060405180910390f35b34801561022157600080fd5b5061022a610887565b604051808273ffffffffffffffffffffffffffffffffffffffff1673ffffffffffffffffffffffffffffffffffffffff16815260200191505060405180910390f35b60015481565b60006001600281111561028157fe5b600360149054906101000a900460ff16600281111561029c57fe5b1415156102a857600080fd5b600260009054906101000a900473ffffffffffffffffffffffffffffffffffffffff1673ffffffffffffffffffffffffffffffffffffffff16600130604051808273ffffffffffffffffffffffffffffffffffffffff1673ffffffffffffffffffffffffffffffffffffffff166c01000000000000000000000000028152601401915050604051809103902060405180807f19457468657265756d205369676e6564204d6573736167653a0a333200000000815250601c0182600019166000191681526020019150506040518091039020868686604051600081526020016040526040518085600019166000191681526020018460ff1660ff1681526020018360001916600019168152602001826000191660001916815260200194505050505060206040516020810390808403906000865af11580156103ed573d6000803e3d6000fd5b5050506020604051035173ffffffffffffffffffffffffffffffffffffffff1614151561041957600080fd5b6000809054906101000a900473ffffffffffffffffffffffffffffffffffffffff1673ffffffffffffffffffffffffffffffffffffffff1663095ea7b3600360009054906101000a900473ffffffffffffffffffffffffffffffffffffffff166001546040518363ffffffff167c0100000000000000000000000000000000000000000000000000000000028152600401808373ffffffffffffffffffffffffffffffffffffffff1673ffffffffffffffffffffffffffffffffffffffff16815260200182815260200192505050602060405180830381600087803b15801561050157600080fd5b505af1158015610515573d6000803e3d6000fd5b505050506040513d602081101561052b57600080fd5b8101908080519060200190929190505050151561054757600080fd5b6002600360146101000a81548160ff0219169083600281111561056657fe5b02179055507fc3feda8a94e1e6d26005ad24f78b1e773162175a4cfe587ffa6513036f1b17f560405160405180910390a1600190509392505050565b600260009054906101000a900473ffffffffffffffffffffffffffffffffffffffff1681565b600360149054906101000a900460ff1681565b600060028111156105e857fe5b600360149054906101000a900460ff16600281111561060357fe5b14151561060f57600080fd5b6000809054906101000a900473ffffffffffffffffffffffffffffffffffffffff1673ffffffffffffffffffffffffffffffffffffffff166323b872dd600260009054906101000a900473ffffffffffffffffffffffffffffffffffffffff16306001546040518463ffffffff167c0100000000000000000000000000000000000000000000000000000000028152600401808473ffffffffffffffffffffffffffffffffffffffff1673ffffffffffffffffffffffffffffffffffffffff1681526020018373ffffffffffffffffffffffffffffffffffffffff1673ffffffffffffffffffffffffffffffffffffffff1681526020018281526020019350505050602060405180830381600087803b15801561072b57600080fd5b505af115801561073f573d6000803e3d6000fd5b505050506040513d602081101561075557600080fd5b8101908080519060200190929190505050151561077157600080fd5b600360009054906101000a900473ffffffffffffffffffffffffffffffffffffffff1673ffffffffffffffffffffffffffffffffffffffff1663ef47243d6040518163ffffffff167c0100000000000000000000000000000000000000000000000000000000028152600401600060405180830381600087803b1580156107f757600080fd5b505af115801561080b573d6000803e3d6000fd5b505050506001600360146101000a81548160ff0219169083600281111561082e57fe5b02179055507f416215c90ce8ab9c8cf26413706dc28a3d64986c56f85cd12a17de69b234776160405160405180910390a1565b600360009054906101000a900473ffffffffffffffffffffffffffffffffffffffff1681565b6000809054906101000a900473ffffffffffffffffffffffffffffffffffffffff16815600a165627a7a7230582051ff44f5efe2fda3e79d90ee982ede12f7a940b8c959846883922fd47e6d5bac0029a165627a7a72305820c1a9422b08e5ea761aae8fa67b6dde8894db31079d5b2afbbac036e5ef717ef90029",
  "source": "pragma solidity ^0.4.21;\n\nimport \"zeppelin-solidity/contracts/token/ERC20.sol\";\nimport \"./Job.sol\";\n\ncontract Agent {\n    enum AgentState {\n        ENABLED,\n        DISABLED\n    }\n\n    AgentState public state;\n    address public owner;\n    ERC20 public token;\n    mapping(address => bool) public createdJobs;\n    uint public currentPrice;\n    string public endpoint;\n    string public definition;\n\n    event JobCreated(address job, address consumer, uint jobPrice);\n    event JobFunded(address job);\n    event JobCompleted(address job);\n\n    function Agent(address _token, uint _currentPrice, string _endpoint, string _definition) public {\n        state = AgentState.ENABLED;\n        owner = tx.origin;\n        token = ERC20(_token);\n        currentPrice = _currentPrice;\n        endpoint = _endpoint;\n        definition = _definition;\n    }\n\n    function setPrice(uint _currentPrice) public {\n        require(tx.origin == owner);\n        currentPrice = _currentPrice;\n    }\n\n    function setEndpoint(string _endpoint) public {\n        require(tx.origin == owner);\n        endpoint = _endpoint;\n    }\n\n    function setDefinition(string _definition) public {\n      require(tx.origin == owner);\n      definition = _definition;\n    }\n\n    function disable() public {\n        require(state == AgentState.ENABLED);\n        require(tx.origin == owner);\n        state = AgentState.DISABLED;\n    }\n\n    function enable() public {\n        require(state == AgentState.DISABLED);\n        require(tx.origin == owner);\n        state = AgentState.ENABLED;\n    }\n\n    function createJob() public returns (address, uint) {\n        require(state == AgentState.ENABLED);\n        address job = new Job(address(token), currentPrice);\n        createdJobs[job] = true;\n        emit JobCreated(job, Job(job).consumer(), currentPrice);\n        return (job, currentPrice);\n    }\n\n    function fundJob() public {\n        address job = msg.sender;\n        require(createdJobs[job]);\n        require(Job(job).state() == Job.JobState.PENDING);\n        emit JobFunded(job);\n    }\n\n    function validateJobInvocation(address job, uint8 v, bytes32 r, bytes32 s) public view returns (bool) {\n        if (createdJobs[job] && Job(job).state() == Job.JobState.FUNDED && ecrecover(keccak256(\"\\x19Ethereum Signed Message:\\n32\", keccak256(job)), v, r, s) == Job(job).consumer()) {\n            return true;\n        }\n        return false;\n    }\n\n    function completeJob(address job, uint8 v, bytes32 r, bytes32 s) public {\n        require(createdJobs[job]);\n        require(Job(job).completeJob(v, r, s));\n        require(token.transferFrom(job, owner, Job(job).jobPrice()));\n        emit JobCompleted(job);\n    }\n}\n",
  "sourcePath": "/Users/valerio.versace/repo/SingularityNET/alpha-blockchain/contracts/Agent.sol",
  "compiler": {
    "name": "solc",
    "version": "0.4.23+commit.124ca40d.Emscripten.clang"
  },
  "schemaVersion": "2.0.0",
  "updatedAt": "2018-05-20T21:41:43.649Z"
}