{
  "contractName": "Job",
  "abi": [
    {
      "constant": true,
      "inputs": [],
      "name": "jobPrice",
      "outputs": [
        {
          "name": "",
          "type": "uint256"
        }
      ],
      "payable": false,
      "stateMutability": "view",
      "type": "function"
    },
    {
      "constant": true,
      "inputs": [],
      "name": "consumer",
      "outputs": [
        {
          "name": "",
          "type": "address"
        }
      ],
      "payable": false,
      "stateMutability": "view",
      "type": "function"
    },
    {
      "constant": true,
      "inputs": [],
      "name": "state",
      "outputs": [
        {
          "name": "",
          "type": "uint8"
        }
      ],
      "payable": false,
      "stateMutability": "view",
      "type": "function"
    },
    {
      "constant": true,
      "inputs": [],
      "name": "agent",
      "outputs": [
        {
          "name": "",
          "type": "address"
        }
      ],
      "payable": false,
      "stateMutability": "view",
      "type": "function"
    },
    {
      "constant": true,
      "inputs": [],
      "name": "token",
      "outputs": [
        {
          "name": "",
          "type": "address"
        }
      ],
      "payable": false,
      "stateMutability": "view",
      "type": "function"
    },
    {
      "inputs": [
        {
          "name": "_token",
          "type": "address"
        },
        {
          "name": "_jobPrice",
          "type": "uint256"
        }
      ],
      "payable": false,
      "stateMutability": "nonpayable",
      "type": "constructor"
    },
    {
      "anonymous": false,
      "inputs": [],
      "name": "JobFunded",
      "type": "event"
    },
    {
      "anonymous": false,
      "inputs": [],
      "name": "JobCompleted",
      "type": "event"
    },
    {
      "constant": false,
      "inputs": [],
      "name": "fundJob",
      "outputs": [],
      "payable": false,
      "stateMutability": "nonpayable",
      "type": "function"
    },
    {
      "constant": false,
      "inputs": [
        {
          "name": "v",
          "type": "uint8"
        },
        {
          "name": "r",
          "type": "bytes32"
        },
        {
          "name": "s",
          "type": "bytes32"
        }
      ],
      "name": "completeJob",
      "outputs": [
        {
          "name": "",
          "type": "bool"
        }
      ],
      "payable": false,
      "stateMutability": "nonpayable",
      "type": "function"
    }
  ],
  "bytecode": "0x608060405234801561001057600080fd5b50604051604080610a138339810180604052810190808051906020019092919080519060200190929190505050816000806101000a81548173ffffffffffffffffffffffffffffffffffffffff021916908373ffffffffffffffffffffffffffffffffffffffff1602179055508060018190555032600260006101000a81548173ffffffffffffffffffffffffffffffffffffffff021916908373ffffffffffffffffffffffffffffffffffffffff16021790555033600360006101000a81548173ffffffffffffffffffffffffffffffffffffffff021916908373ffffffffffffffffffffffffffffffffffffffff1602179055506000600360146101000a81548160ff0219169083600281111561012557fe5b021790555050506108d88061013b6000396000f300608060405260043610610083576000357c0100000000000000000000000000000000000000000000000000000000900463ffffffff168063556a6121146100885780636a3e83b3146100b3578063b4fd729614610117578063c19d93fb1461016e578063ef47243d146101a7578063f5ff5c76146101be578063fc0c546a14610215575b600080fd5b34801561009457600080fd5b5061009d61026c565b6040518082815260200191505060405180910390f35b3480156100bf57600080fd5b506100fd600480360381019080803560ff16906020019092919080356000191690602001909291908035600019169060200190929190505050610272565b604051808215151515815260200191505060405180910390f35b34801561012357600080fd5b5061012c6105a2565b604051808273ffffffffffffffffffffffffffffffffffffffff1673ffffffffffffffffffffffffffffffffffffffff16815260200191505060405180910390f35b34801561017a57600080fd5b506101836105c8565b6040518082600281111561019357fe5b60ff16815260200191505060405180910390f35b3480156101b357600080fd5b506101bc6105db565b005b3480156101ca57600080fd5b506101d3610861565b604051808273ffffffffffffffffffffffffffffffffffffffff1673ffffffffffffffffffffffffffffffffffffffff16815260200191505060405180910390f35b34801561022157600080fd5b5061022a610887565b604051808273ffffffffffffffffffffffffffffffffffffffff1673ffffffffffffffffffffffffffffffffffffffff16815260200191505060405180910390f35b60015481565b60006001600281111561028157fe5b600360149054906101000a900460ff16600281111561029c57fe5b1415156102a857600080fd5b600260009054906101000a900473ffffffffffffffffffffffffffffffffffffffff1673ffffffffffffffffffffffffffffffffffffffff16600130604051808273ffffffffffffffffffffffffffffffffffffffff1673ffffffffffffffffffffffffffffffffffffffff166c01000000000000000000000000028152601401915050604051809103902060405180807f19457468657265756d205369676e6564204d6573736167653a0a333200000000815250601c0182600019166000191681526020019150506040518091039020868686604051600081526020016040526040518085600019166000191681526020018460ff1660ff1681526020018360001916600019168152602001826000191660001916815260200194505050505060206040516020810390808403906000865af11580156103ed573d6000803e3d6000fd5b5050506020604051035173ffffffffffffffffffffffffffffffffffffffff1614151561041957600080fd5b6000809054906101000a900473ffffffffffffffffffffffffffffffffffffffff1673ffffffffffffffffffffffffffffffffffffffff1663095ea7b3600360009054906101000a900473ffffffffffffffffffffffffffffffffffffffff166001546040518363ffffffff167c0100000000000000000000000000000000000000000000000000000000028152600401808373ffffffffffffffffffffffffffffffffffffffff1673ffffffffffffffffffffffffffffffffffffffff16815260200182815260200192505050602060405180830381600087803b15801561050157600080fd5b505af1158015610515573d6000803e3d6000fd5b505050506040513d602081101561052b57600080fd5b8101908080519060200190929190505050151561054757600080fd5b6002600360146101000a81548160ff0219169083600281111561056657fe5b02179055507fc3feda8a94e1e6d26005ad24f78b1e773162175a4cfe587ffa6513036f1b17f560405160405180910390a1600190509392505050565b600260009054906101000a900473ffffffffffffffffffffffffffffffffffffffff1681565b600360149054906101000a900460ff1681565b600060028111156105e857fe5b600360149054906101000a900460ff16600281111561060357fe5b14151561060f57600080fd5b6000809054906101000a900473ffffffffffffffffffffffffffffffffffffffff1673ffffffffffffffffffffffffffffffffffffffff166323b872dd600260009054906101000a900473ffffffffffffffffffffffffffffffffffffffff16306001546040518463ffffffff167c0100000000000000000000000000000000000000000000000000000000028152600401808473ffffffffffffffffffffffffffffffffffffffff1673ffffffffffffffffffffffffffffffffffffffff1681526020018373ffffffffffffffffffffffffffffffffffffffff1673ffffffffffffffffffffffffffffffffffffffff1681526020018281526020019350505050602060405180830381600087803b15801561072b57600080fd5b505af115801561073f573d6000803e3d6000fd5b505050506040513d602081101561075557600080fd5b8101908080519060200190929190505050151561077157600080fd5b600360009054906101000a900473ffffffffffffffffffffffffffffffffffffffff1673ffffffffffffffffffffffffffffffffffffffff1663ef47243d6040518163ffffffff167c0100000000000000000000000000000000000000000000000000000000028152600401600060405180830381600087803b1580156107f757600080fd5b505af115801561080b573d6000803e3d6000fd5b505050506001600360146101000a81548160ff0219169083600281111561082e57fe5b02179055507f416215c90ce8ab9c8cf26413706dc28a3d64986c56f85cd12a17de69b234776160405160405180910390a1565b600360009054906101000a900473ffffffffffffffffffffffffffffffffffffffff1681565b6000809054906101000a900473ffffffffffffffffffffffffffffffffffffffff16815600a165627a7a7230582051ff44f5efe2fda3e79d90ee982ede12f7a940b8c959846883922fd47e6d5bac0029",
  "source": "pragma solidity ^0.4.21;\n\nimport \"zeppelin-solidity/contracts/token/ERC20.sol\";\nimport \"./Agent.sol\";\n\ncontract Job {\n    enum JobState {\n        PENDING,\n        FUNDED,\n        COMPLETED\n    }\n\n    ERC20 public token;\n    uint public jobPrice;\n    address public consumer;\n    Agent public agent;\n    JobState public state;\n    \n    event JobFunded();\n    event JobCompleted();\n\n    function Job(address _token, uint _jobPrice) public {\n        token = ERC20(_token);\n        jobPrice = _jobPrice;\n        consumer = tx.origin;\n        agent = Agent(msg.sender);\n        state = JobState.PENDING;\n    }\n\n    function fundJob() public {\n        require(state == JobState.PENDING);\n        require(token.transferFrom(consumer, this, jobPrice));\n        agent.fundJob();\n        state = JobState.FUNDED;\n        emit JobFunded();\n    }\n\n    function completeJob(uint8 v, bytes32 r, bytes32 s) public returns (bool) {\n        require(state == JobState.FUNDED);\n        require(ecrecover(keccak256(\"\\x19Ethereum Signed Message:\\n32\", keccak256(this)), v, r, s) == consumer);\n        require(token.approve(address(agent), jobPrice));\n        state = JobState.COMPLETED;\n        emit JobCompleted();\n        return true;\n    }\n}\n",
  "sourcePath": "/Users/valerio.versace/repo/SingularityNET/alpha-blockchain/contracts/Job.sol",
  "compiler": {
    "name": "solc",
    "version": "0.4.23+commit.124ca40d.Emscripten.clang"
  },
  "schemaVersion": "2.0.0",
  "updatedAt": "2018-05-20T21:41:43.651Z"
}