{
  "contractName": "Registry",
  "abi": [
    {
      "constant": false,
      "inputs": [
        {
          "name": "orgName",
          "type": "bytes32"
        },
        {
          "name": "members",
          "type": "address[]"
        }
      ],
      "name": "createOrganization",
      "outputs": [
        {
          "name": "success",
          "type": "bool"
        }
      ],
      "payable": false,
      "stateMutability": "nonpayable",
      "type": "function"
    },
    {
      "constant": false,
      "inputs": [
        {
          "name": "orgName",
          "type": "bytes32"
        },
        {
          "name": "newOwner",
          "type": "address"
        }
      ],
      "name": "changeOrganizationOwner",
      "outputs": [
        {
          "name": "success",
          "type": "bool"
        }
      ],
      "payable": false,
      "stateMutability": "nonpayable",
      "type": "function"
    },
    {
      "constant": false,
      "inputs": [
        {
          "name": "orgName",
          "type": "bytes32"
        },
        {
          "name": "newMembers",
          "type": "address[]"
        }
      ],
      "name": "addOrganizationMembers",
      "outputs": [
        {
          "name": "success",
          "type": "bool"
        }
      ],
      "payable": false,
      "stateMutability": "nonpayable",
      "type": "function"
    },
    {
      "constant": false,
      "inputs": [
        {
          "name": "orgName",
          "type": "bytes32"
        },
        {
          "name": "existingMembers",
          "type": "address[]"
        }
      ],
      "name": "removeOrganizationMembers",
      "outputs": [
        {
          "name": "success",
          "type": "bool"
        }
      ],
      "payable": false,
      "stateMutability": "nonpayable",
      "type": "function"
    },
    {
      "constant": false,
      "inputs": [
        {
          "name": "orgName",
          "type": "bytes32"
        }
      ],
      "name": "deleteOrganization",
      "outputs": [
        {
          "name": "success",
          "type": "bool"
        }
      ],
      "payable": false,
      "stateMutability": "nonpayable",
      "type": "function"
    },
    {
      "constant": false,
      "inputs": [
        {
          "name": "orgName",
          "type": "bytes32"
        },
        {
          "name": "serviceName",
          "type": "bytes32"
        },
        {
          "name": "servicePath",
          "type": "bytes32"
        },
        {
          "name": "agentAddress",
          "type": "address"
        },
        {
          "name": "tags",
          "type": "bytes32[]"
        }
      ],
      "name": "createServiceRegistration",
      "outputs": [
        {
          "name": "success",
          "type": "bool"
        }
      ],
      "payable": false,
      "stateMutability": "nonpayable",
      "type": "function"
    },
    {
      "constant": false,
      "inputs": [
        {
          "name": "orgName",
          "type": "bytes32"
        },
        {
          "name": "serviceName",
          "type": "bytes32"
        },
        {
          "name": "servicePath",
          "type": "bytes32"
        },
        {
          "name": "agentAddress",
          "type": "address"
        }
      ],
      "name": "updateServiceRegistration",
      "outputs": [
        {
          "name": "success",
          "type": "bool"
        }
      ],
      "payable": false,
      "stateMutability": "nonpayable",
      "type": "function"
    },
    {
      "constant": false,
      "inputs": [
        {
          "name": "orgName",
          "type": "bytes32"
        },
        {
          "name": "serviceName",
          "type": "bytes32"
        },
        {
          "name": "tags",
          "type": "bytes32[]"
        }
      ],
      "name": "addTagsToServiceRegistration",
      "outputs": [
        {
          "name": "success",
          "type": "bool"
        }
      ],
      "payable": false,
      "stateMutability": "nonpayable",
      "type": "function"
    },
    {
      "constant": false,
      "inputs": [
        {
          "name": "orgName",
          "type": "bytes32"
        },
        {
          "name": "serviceName",
          "type": "bytes32"
        },
        {
          "name": "tags",
          "type": "bytes32[]"
        }
      ],
      "name": "removeTagsFromServiceRegistration",
      "outputs": [
        {
          "name": "success",
          "type": "bool"
        }
      ],
      "payable": false,
      "stateMutability": "nonpayable",
      "type": "function"
    },
    {
      "constant": false,
      "inputs": [
        {
          "name": "orgName",
          "type": "bytes32"
        },
        {
          "name": "serviceName",
          "type": "bytes32"
        }
      ],
      "name": "deleteServiceRegistration",
      "outputs": [
        {
          "name": "success",
          "type": "bool"
        }
      ],
      "payable": false,
      "stateMutability": "nonpayable",
      "type": "function"
    },
    {
      "constant": false,
      "inputs": [
        {
          "name": "orgName",
          "type": "bytes32"
        },
        {
          "name": "repositoryName",
          "type": "bytes32"
        },
        {
          "name": "repositoryPath",
          "type": "bytes32"
        },
        {
          "name": "repositoryURI",
          "type": "bytes"
        },
        {
          "name": "tags",
          "type": "bytes32[]"
        }
      ],
      "name": "createTypeRepositoryRegistration",
      "outputs": [
        {
          "name": "success",
          "type": "bool"
        }
      ],
      "payable": false,
      "stateMutability": "nonpayable",
      "type": "function"
    },
    {
      "constant": false,
      "inputs": [
        {
          "name": "orgName",
          "type": "bytes32"
        },
        {
          "name": "repositoryName",
          "type": "bytes32"
        },
        {
          "name": "repositoryPath",
          "type": "bytes32"
        },
        {
          "name": "repositoryURI",
          "type": "bytes"
        }
      ],
      "name": "updateTypeRepositoryRegistration",
      "outputs": [
        {
          "name": "success",
          "type": "bool"
        }
      ],
      "payable": false,
      "stateMutability": "nonpayable",
      "type": "function"
    },
    {
      "constant": false,
      "inputs": [
        {
          "name": "orgName",
          "type": "bytes32"
        },
        {
          "name": "repositoryName",
          "type": "bytes32"
        },
        {
          "name": "tags",
          "type": "bytes32[]"
        }
      ],
      "name": "addTagsToTypeRepositoryRegistration",
      "outputs": [
        {
          "name": "success",
          "type": "bool"
        }
      ],
      "payable": false,
      "stateMutability": "nonpayable",
      "type": "function"
    },
    {
      "constant": false,
      "inputs": [
        {
          "name": "orgName",
          "type": "bytes32"
        },
        {
          "name": "repositoryName",
          "type": "bytes32"
        },
        {
          "name": "tags",
          "type": "bytes32[]"
        }
      ],
      "name": "removeTagsFromTypeRepositoryRegistration",
      "outputs": [
        {
          "name": "success",
          "type": "bool"
        }
      ],
      "payable": false,
      "stateMutability": "nonpayable",
      "type": "function"
    },
    {
      "constant": false,
      "inputs": [
        {
          "name": "orgName",
          "type": "bytes32"
        },
        {
          "name": "repositoryName",
          "type": "bytes32"
        }
      ],
      "name": "deleteTypeRepositoryRegistration",
      "outputs": [
        {
          "name": "success",
          "type": "bool"
        }
      ],
      "payable": false,
      "stateMutability": "nonpayable",
      "type": "function"
    },
    {
      "constant": true,
      "inputs": [],
      "name": "listOrganizations",
      "outputs": [
        {
          "name": "orgNames",
          "type": "bytes32[]"
        }
      ],
      "payable": false,
      "stateMutability": "view",
      "type": "function"
    },
    {
      "constant": true,
      "inputs": [
        {
          "name": "orgName",
          "type": "bytes32"
        }
      ],
      "name": "getOrganizationByName",
      "outputs": [
        {
          "name": "found",
          "type": "bool"
        },
        {
          "name": "name",
          "type": "bytes32"
        },
        {
          "name": "owner",
          "type": "address"
        },
        {
          "name": "serviceNames",
          "type": "bytes32[]"
        },
        {
          "name": "repositoryNames",
          "type": "bytes32[]"
        }
      ],
      "payable": false,
      "stateMutability": "view",
      "type": "function"
    },
    {
      "constant": true,
      "inputs": [
        {
          "name": "orgName",
          "type": "bytes32"
        }
      ],
      "name": "listServicesForOrganization",
      "outputs": [
        {
          "name": "found",
          "type": "bool"
        },
        {
          "name": "serviceNames",
          "type": "bytes32[]"
        }
      ],
      "payable": false,
      "stateMutability": "view",
      "type": "function"
    },
    {
      "constant": true,
      "inputs": [
        {
          "name": "orgName",
          "type": "bytes32"
        },
        {
          "name": "serviceName",
          "type": "bytes32"
        }
      ],
      "name": "getServiceRegistrationByName",
      "outputs": [
        {
          "name": "found",
          "type": "bool"
        },
        {
          "name": "name",
          "type": "bytes32"
        },
        {
          "name": "path",
          "type": "bytes32"
        },
        {
          "name": "agentAddress",
          "type": "address"
        },
        {
          "name": "tags",
          "type": "bytes32[]"
        }
      ],
      "payable": false,
      "stateMutability": "view",
      "type": "function"
    },
    {
      "constant": true,
      "inputs": [
        {
          "name": "orgName",
          "type": "bytes32"
        }
      ],
      "name": "listTypeRepositoriesForOrganization",
      "outputs": [
        {
          "name": "found",
          "type": "bool"
        },
        {
          "name": "repositoryNames",
          "type": "bytes32[]"
        }
      ],
      "payable": false,
      "stateMutability": "view",
      "type": "function"
    },
    {
      "constant": true,
      "inputs": [
        {
          "name": "orgName",
          "type": "bytes32"
        },
        {
          "name": "repositoryName",
          "type": "bytes32"
        }
      ],
      "name": "getTypeRepositoryByName",
      "outputs": [
        {
          "name": "found",
          "type": "bool"
        },
        {
          "name": "name",
          "type": "bytes32"
        },
        {
          "name": "path",
          "type": "bytes32"
        },
        {
          "name": "uri",
          "type": "bytes"
        },
        {
          "name": "tags",
          "type": "bytes32[]"
        }
      ],
      "payable": false,
      "stateMutability": "view",
      "type": "function"
    },
    {
      "constant": true,
      "inputs": [],
      "name": "listServiceTags",
      "outputs": [
        {
          "name": "tags",
          "type": "bytes32[]"
        }
      ],
      "payable": false,
      "stateMutability": "view",
      "type": "function"
    },
    {
      "constant": true,
      "inputs": [
        {
          "name": "tag",
          "type": "bytes32"
        }
      ],
      "name": "listServicesForTag",
      "outputs": [
        {
          "name": "orgNames",
          "type": "bytes32[]"
        },
        {
          "name": "serviceNames",
          "type": "bytes32[]"
        }
      ],
      "payable": false,
      "stateMutability": "view",
      "type": "function"
    },
    {
      "constant": true,
      "inputs": [],
      "name": "listTypeRepositoryTags",
      "outputs": [
        {
          "name": "tags",
          "type": "bytes32[]"
        }
      ],
      "payable": false,
      "stateMutability": "view",
      "type": "function"
    },
    {
      "constant": true,
      "inputs": [
        {
          "name": "tag",
          "type": "bytes32"
        }
      ],
      "name": "listTypeRepositoriesForTag",
      "outputs": [
        {
          "name": "orgNames",
          "type": "bytes32[]"
        },
        {
          "name": "repositoryNames",
          "type": "bytes32[]"
        }
      ],
      "payable": false,
      "stateMutability": "view",
      "type": "function"
    }
  ],
  "bytecode": "0x6060604052341561000f57600080fd5b615628806200001f6000396000f300606060405260043610610149576000357c0100000000000000000000000000000000000000000000000000000000900463ffffffff168063013be2e01461014e5780632cd49849146101ae578063340d84e5146102bf5780633a2cb860146103295780633d408ac0146103b0578063520e855b146104955780635a1589d5146104ff5780636928848d1461056c578063692c8a92146105ab578063781d69d21461066f57806383c83b79146106c25780638bd79dc81461073a5780638e07e977146107bb5780639aad8d9d1461081b578063acd298d314610867578063afab986c1461092b578063b72516551461098b578063bb82354f146109f5578063ca62968a14610a7c578063ca6993d414610adc578063ca97758c14610b68578063d2e544f714610bb4578063d9219d2814610c07578063e443852d14610c5a578063e5ae53e214610cb8575b600080fd5b341561015957600080fd5b610194600480803560001916906020019091908035600019169060200190919080359060200190820180359060200191909192905050610dd6565b604051808215151515815260200191505060405180910390f35b34156101b957600080fd5b6101d3600480803560001916906020019091905050610fa8565b604051808615151515815260200185600019166000191681526020018473ffffffffffffffffffffffffffffffffffffffff1673ffffffffffffffffffffffffffffffffffffffff1681526020018060200180602001838103835285818151815260200191508051906020019060200280838360005b83811015610264578082015181840152602081019050610249565b50505050905001838103825284818151815260200191508051906020019060200280838360005b838110156102a657808201518184015260208101905061028b565b5050505090500197505050505050505060405180910390f35b34156102ca57600080fd5b6102d261114e565b6040518080602001828103825283818151815260200191508051906020019060200280838360005b838110156103155780820151818401526020810190506102fa565b505050509050019250505060405180910390f35b341561033457600080fd5b61034e6004808035600019169060200190919050506111b0565b604051808315151515815260200180602001828103825283818151815260200191508051906020019060200280838360005b8381101561039b578082015181840152602081019050610380565b50505050905001935050505060405180910390f35b34156103bb57600080fd5b6103e260048080356000191690602001909190803560001916906020019091905050611272565b6040518086151515158152602001856000191660001916815260200184600019166000191681526020018373ffffffffffffffffffffffffffffffffffffffff1673ffffffffffffffffffffffffffffffffffffffff16815260200180602001828103825283818151815260200191508051906020019060200280838360005b8381101561047d578082015181840152602081019050610462565b50505050905001965050505050505060405180910390f35b34156104a057600080fd5b6104a8611487565b6040518080602001828103825283818151815260200191508051906020019060200280838360005b838110156104eb5780820151818401526020810190506104d0565b505050509050019250505060405180910390f35b341561050a57600080fd5b610552600480803560001916906020019091908035600019169060200190919080356000191690602001909190803590602001908201803590602001919091929050506114e9565b604051808215151515815260200191505060405180910390f35b341561057757600080fd5b610591600480803560001916906020019091905050611705565b604051808215151515815260200191505060405180910390f35b34156105b657600080fd5b6105d06004808035600019169060200190919050506118e3565b604051808060200180602001838103835285818151815260200191508051906020019060200280838360005b838110156106175780820151818401526020810190506105fc565b50505050905001838103825284818151815260200191508051906020019060200280838360005b8381101561065957808201518184015260208101905061063e565b5050505090500194505050505060405180910390f35b341561067a57600080fd5b6106a860048080356000191690602001909190803590602001908201803590602001919091929050506119de565b604051808215151515815260200191505060405180910390f35b34156106cd57600080fd5b610720600480803560001916906020019091908035600019169060200190919080356000191690602001909190803573ffffffffffffffffffffffffffffffffffffffff16906020019091905050611c82565b604051808215151515815260200191505060405180910390f35b341561074557600080fd5b6107a1600480803560001916906020019091908035600019169060200190919080356000191690602001909190803590602001908201803590602001919091929080359060200190820180359060200191909192905050611ecc565b604051808215151515815260200191505060405180910390f35b34156107c657600080fd5b6108016004808035600019169060200190919080356000191690602001909190803590602001908201803590602001919091929050506122c5565b604051808215151515815260200191505060405180910390f35b341561082657600080fd5b61084d60048080356000191690602001909190803560001916906020019091905050612497565b604051808215151515815260200191505060405180910390f35b341561087257600080fd5b61088c60048080356000191690602001909190505061289b565b604051808060200180602001838103835285818151815260200191508051906020019060200280838360005b838110156108d35780820151818401526020810190506108b8565b50505050905001838103825284818151815260200191508051906020019060200280838360005b838110156109155780820151818401526020810190506108fa565b5050505090500194505050505060405180910390f35b341561093657600080fd5b610971600480803560001916906020019091908035600019169060200190919080359060200190820180359060200191909192905050612996565b604051808215151515815260200191505060405180910390f35b341561099657600080fd5b61099e612b68565b6040518080602001828103825283818151815260200191508051906020019060200280838360005b838110156109e15780820151818401526020810190506109c6565b505050509050019250505060405180910390f35b3415610a0057600080fd5b610a1a600480803560001916906020019091905050612bca565b604051808315151515815260200180602001828103825283818151815260200191508051906020019060200280838360005b83811015610a67578082015181840152602081019050610a4c565b50505050905001935050505060405180910390f35b3415610a8757600080fd5b610ac2600480803560001916906020019091908035600019169060200190919080359060200190820180359060200191909192905050612c8c565b604051808215151515815260200191505060405180910390f35b3415610ae757600080fd5b610b4e600480803560001916906020019091908035600019169060200190919080356000191690602001909190803573ffffffffffffffffffffffffffffffffffffffff169060200190919080359060200190820180359060200191909192905050612e5f565b604051808215151515815260200191505060405180910390f35b3415610b7357600080fd5b610b9a600480803560001916906020019091908035600019169060200190919050506132b0565b604051808215151515815260200191505060405180910390f35b3415610bbf57600080fd5b610bed60048080356000191690602001909190803590602001908201803590602001919091929050506136cb565b604051808215151515815260200191505060405180910390f35b3415610c1257600080fd5b610c4060048080356000191690602001909190803590602001908201803590602001919091929050506138bf565b604051808215151515815260200191505060405180910390f35b3415610c6557600080fd5b610c9e60048080356000191690602001909190803573ffffffffffffffffffffffffffffffffffffffff16906020019091905050613ab2565b604051808215151515815260200191505060405180910390f35b3415610cc357600080fd5b610cea60048080356000191690602001909190803560001916906020019091905050613bd2565b6040518086151515158152602001856000191660001916815260200184600019166000191681526020018060200180602001838103835285818151815260200191508051906020019080838360005b83811015610d54578082015181840152602081019050610d39565b50505050905090810190601f168015610d815780820380516001836020036101000a031916815260200191505b50838103825284818151815260200191508051906020019060200280838360005b83811015610dbd578082015181840152602081019050610da2565b5050505090500197505050505050505060405180910390f35b60008060006001026000191660016000886000191660001916815260200190815260200160002060000154600019161415610e145760009150610f9f565b60016000876000191660001916815260200190815260200160002060010160009054906101000a900473ffffffffffffffffffffffffffffffffffffffff1673ffffffffffffffffffffffffffffffffffffffff163373ffffffffffffffffffffffffffffffffffffffff1614158015610ef4575060016000876000191660001916815260200190815260200160002060020160003373ffffffffffffffffffffffffffffffffffffffff1673ffffffffffffffffffffffffffffffffffffffff16815260200190815260200160002060009054906101000a900460ff16155b15610f025760009150610f9f565b6000600102600019166001600088600019166000191681526020019081526020016000206005016000876000191660001916815260200190815260200160002060000154600019161415610f595760009150610f9f565b600090505b83839050811015610f9a57610f8c86868686858181101515610f7c57fe5b9050602002013560001916613e2c565b508080600101915050610f5e565b600191505b50949350505050565b6000806000610fb5615210565b610fbd615210565b60006001026000191660016000886000191660001916815260200190815260200160002060000154600019161415610ff85760009450611145565b6001945060016000876000191660001916815260200190815260200160002060000154935060016000876000191660001916815260200190815260200160002060010160009054906101000a900473ffffffffffffffffffffffffffffffffffffffff1692506001600087600019166000191681526020019081526020016000206003018054806020026020016040519081016040528092919081815260200182805480156110ca57602002820191906000526020600020905b815460001916815260200190600101908083116110b2575b5050505050915060016000876000191660001916815260200190815260200160002060040180548060200260200160405190810160405280929190818152602001828054801561113d57602002820191906000526020600020905b81546000191681526020019060010190808311611125575b505050505090505b91939590929450565b611156615210565b60008054806020026020016040519081016040528092919081815260200182805480156111a657602002820191906000526020600020905b8154600019168152602001906001019080831161118e575b5050505050905090565b60006111ba615210565b600060010260001916600160008560001916600019168152602001908152602001600020600001546000191614156111f5576000915061126d565b6001915060016000846000191660001916815260200190815260200160002060030180548060200260200160405190810160405280929190818152602001828054801561126557602002820191906000526020600020905b8154600019168152602001906001019080831161124d575b505050505090505b915091565b600080600080611280615210565b600060010260001916600160008960001916600019168152602001908152602001600020600001546000191614156112bb576000945061147d565b6000600102600019166001600089600019166000191681526020019081526020016000206005016000886000191660001916815260200190815260200160002060000154600019161415611312576000945061147d565b6001945060016000886000191660001916815260200190815260200160002060050160008760001916600019168152602001908152602001600020600001549350600160008860001916600019168152602001908152602001600020600501600087600019166000191681526020019081526020016000206001015492506001600088600019166000191681526020019081526020016000206005016000876000191660001916815260200190815260200160002060020160009054906101000a900473ffffffffffffffffffffffffffffffffffffffff1691506001600088600019166000191681526020019081526020016000206005016000876000191660001916815260200190815260200160002060030180548060200260200160405190810160405280929190818152602001828054801561147557602002820191906000526020600020905b8154600019168152602001906001019080831161145d575b505050505090505b9295509295909350565b61148f615210565b60038054806020026020016040519081016040528092919081815260200182805480156114df57602002820191906000526020600020905b815460001916815260200190600101908083116114c7575b5050505050905090565b600080600102600019166001600088600019166000191681526020019081526020016000206000015460001916141561152557600090506116fc565b60016000876000191660001916815260200190815260200160002060010160009054906101000a900473ffffffffffffffffffffffffffffffffffffffff1673ffffffffffffffffffffffffffffffffffffffff163373ffffffffffffffffffffffffffffffffffffffff1614158015611605575060016000876000191660001916815260200190815260200160002060020160003373ffffffffffffffffffffffffffffffffffffffff1673ffffffffffffffffffffffffffffffffffffffff16815260200190815260200160002060009054906101000a900460ff16155b1561161357600090506116fc565b600060010260001916600160008860001916600019168152602001908152602001600020600601600087600019166000191681526020019081526020016000206000015460001916141561166a57600090506116fc565b8360016000886000191660001916815260200190815260200160002060060160008760001916600019168152602001908152602001600020600101816000191690555082826001600089600019166000191681526020019081526020016000206006016000886000191660001916815260200190815260200160002060020191906116f6929190615224565b50600190505b95945050505050565b600080600080600102600019166001600086600019166000191681526020019081526020016000206000015460001916141561174457600092506118dc565b60016000856000191660001916815260200190815260200160002060010160009054906101000a900473ffffffffffffffffffffffffffffffffffffffff1673ffffffffffffffffffffffffffffffffffffffff163373ffffffffffffffffffffffffffffffffffffffff161415156117c057600092506118dc565b60016000856000191660001916815260200190815260200160002060070154915060006001600080549050038154811015156117f857fe5b90600052602060002090015490508060008381548110151561181657fe5b906000526020600020900181600019169055508160016000836000191660001916815260200190815260200160002060070181905550600080548091906001900361186191906152a4565b506001600085600019166000191681526020019081526020016000206000808201600090556001820160006101000a81549073ffffffffffffffffffffffffffffffffffffffff02191690556003820160006118bd91906152d0565b6004820160006118cd91906152d0565b60078201600090555050600192505b5050919050565b6118eb615210565b6118f3615210565b60056000846000191660001916815260200190815260200160002060010180548060200260200160405190810160405280929190818152602001828054801561195f57602002820191906000526020600020905b81546000191681526020019060010190808311611947575b505050505091506005600084600019166000191681526020019081526020016000206002018054806020026020016040519081016040528092919081815260200182805480156119d257602002820191906000526020600020905b815460001916815260200190600101908083116119ba575b50505050509050915091565b60006119e86152f1565b600080600102600019166001600088600019166000191681526020019081526020016000206000015460001916141515611a255760009250611c79565b816001600088600019166000191681526020019081526020016000206000820151816000019060001916905560208201518160010160006101000a81548173ffffffffffffffffffffffffffffffffffffffff021916908373ffffffffffffffffffffffffffffffffffffffff1602179055506040820151816003019080519060200190611ab4929190615346565b506060820151816004019080519060200190611ad1929190615346565b50608082015181600701559050508560016000886000191660001916815260200190815260200160002060000181600019169055503360016000886000191660001916815260200190815260200160002060010160006101000a81548173ffffffffffffffffffffffffffffffffffffffff021916908373ffffffffffffffffffffffffffffffffffffffff1602179055506000805490506001600088600019166000191681526020019081526020016000206007018190555060008054806001018281611b9f9190615399565b916000526020600020900160008890919091509060001916905550600090505b84849050811015611c74576001806000886000191660001916815260200190815260200160002060020160008787858181101515611bf957fe5b9050602002013573ffffffffffffffffffffffffffffffffffffffff1673ffffffffffffffffffffffffffffffffffffffff1673ffffffffffffffffffffffffffffffffffffffff16815260200190815260200160002060006101000a81548160ff0219169083151502179055508080600101915050611bbf565b600192505b50509392505050565b6000806001026000191660016000876000191660001916815260200190815260200160002060000154600019161415611cbe5760009050611ec4565b60016000866000191660001916815260200190815260200160002060010160009054906101000a900473ffffffffffffffffffffffffffffffffffffffff1673ffffffffffffffffffffffffffffffffffffffff163373ffffffffffffffffffffffffffffffffffffffff1614158015611d9e575060016000866000191660001916815260200190815260200160002060020160003373ffffffffffffffffffffffffffffffffffffffff1673ffffffffffffffffffffffffffffffffffffffff16815260200190815260200160002060009054906101000a900460ff16155b15611dac5760009050611ec4565b6000600102600019166001600087600019166000191681526020019081526020016000206005016000866000191660001916815260200190815260200160002060000154600019161415611e035760009050611ec4565b82600160008760001916600019168152602001908152602001600020600501600086600019166000191681526020019081526020016000206001018160001916905550816001600087600019166000191681526020019081526020016000206005016000866000191660001916815260200190815260200160002060020160006101000a81548173ffffffffffffffffffffffffffffffffffffffff021916908373ffffffffffffffffffffffffffffffffffffffff160217905550600190505b949350505050565b6000611ed66153c5565b60008060010260001916600160008c6000191660001916815260200190815260200160002060000154600019161415611f1257600092506122b8565b600160008b6000191660001916815260200190815260200160002060010160009054906101000a900473ffffffffffffffffffffffffffffffffffffffff1673ffffffffffffffffffffffffffffffffffffffff163373ffffffffffffffffffffffffffffffffffffffff1614158015611ff25750600160008b6000191660001916815260200190815260200160002060020160003373ffffffffffffffffffffffffffffffffffffffff1673ffffffffffffffffffffffffffffffffffffffff16815260200190815260200160002060009054906101000a900460ff16155b1561200057600092506122b8565b600060010260001916600160008c6000191660001916815260200190815260200160002060060160008b60001916600019168152602001908152602001600020600001546000191614151561205857600092506122b8565b81600160008c6000191660001916815260200190815260200160002060060160008b60001916600019168152602001908152602001600020600082015181600001906000191690556020820151816001019060001916905560408201518160020190805190602001906120cc929190615407565b5060608201518160030190805190602001906120e9929190615346565b506080820151816005015590505088600160008c6000191660001916815260200190815260200160002060060160008b60001916600019168152602001908152602001600020600001816000191690555087600160008c6000191660001916815260200190815260200160002060060160008b6000191660001916815260200190815260200160002060010181600019169055508686600160008d6000191660001916815260200190815260200160002060060160008c6000191660001916815260200190815260200160002060020191906121c6929190615224565b50600160008b6000191660001916815260200190815260200160002060040180549050600160008c6000191660001916815260200190815260200160002060060160008b6000191660001916815260200190815260200160002060050181905550600160008b6000191660001916815260200190815260200160002060040180548060010182816122579190615399565b916000526020600020900160008b90919091509060001916905550600090505b848490508110156122b3576122a58a8a878785818110151561229557fe5b90506020020135600019166143b3565b508080600101915050612277565b600192505b5050979650505050505050565b60008060006001026000191660016000886000191660001916815260200190815260200160002060000154600019161415612303576000915061248e565b60016000876000191660001916815260200190815260200160002060010160009054906101000a900473ffffffffffffffffffffffffffffffffffffffff1673ffffffffffffffffffffffffffffffffffffffff163373ffffffffffffffffffffffffffffffffffffffff16141580156123e3575060016000876000191660001916815260200190815260200160002060020160003373ffffffffffffffffffffffffffffffffffffffff1673ffffffffffffffffffffffffffffffffffffffff16815260200190815260200160002060009054906101000a900460ff16155b156123f1576000915061248e565b6000600102600019166001600088600019166000191681526020019081526020016000206005016000876000191660001916815260200190815260200160002060000154600019161415612448576000915061248e565b600090505b838390508110156124895761247b8686868685818110151561246b57fe5b905060200201356000191661481e565b50808060010191505061244d565b600191505b50949350505050565b600080600080600060010260001916600160008860001916600019168152602001908152602001600020600001546000191614156124d85760009350612892565b60016000876000191660001916815260200190815260200160002060010160009054906101000a900473ffffffffffffffffffffffffffffffffffffffff1673ffffffffffffffffffffffffffffffffffffffff163373ffffffffffffffffffffffffffffffffffffffff16141580156125b8575060016000876000191660001916815260200190815260200160002060020160003373ffffffffffffffffffffffffffffffffffffffff1673ffffffffffffffffffffffffffffffffffffffff16815260200190815260200160002060009054906101000a900460ff16155b156125c65760009350612892565b600060010260001916600160008860001916600019168152602001908152602001600020600601600087600019166000191681526020019081526020016000206000015460001916141561261d5760009350612892565b600092505b60016000876000191660001916815260200190815260200160002060060160008660001916600019168152602001908152602001600020600301805490508310156126d2576126c48686600160008a6000191660001916815260200190815260200160002060060160008960001916600019168152602001908152602001600020600301868154811015156126b357fe5b906000526020600020900154614c89565b508280600101935050612622565b6001600087600019166000191681526020019081526020016000206006016000866000191660001916815260200190815260200160002060050154915060016000876000191660001916815260200190815260200160002060040160018060008960001916600019168152602001908152602001600020600401805490500381548110151561275d57fe5b9060005260206000209001549050806001600088600019166000191681526020019081526020016000206004018381548110151561279757fe5b9060005260206000209001816000191690555081600160008860001916600019168152602001908152602001600020600601600083600019166000191681526020019081526020016000206005018190555060016000876000191660001916815260200190815260200160002060040180548091906001900361281a91906152a4565b506001600087600019166000191681526020019081526020016000206006016000866000191660001916815260200190815260200160002060008082016000905560018201600090556002820160006128739190615487565b60038201600061288391906152d0565b60058201600090555050600193505b50505092915050565b6128a3615210565b6128ab615210565b60046000846000191660001916815260200190815260200160002060010180548060200260200160405190810160405280929190818152602001828054801561291757602002820191906000526020600020905b815460001916815260200190600101908083116128ff575b5050505050915060046000846000191660001916815260200190815260200160002060020180548060200260200160405190810160405280929190818152602001828054801561298a57602002820191906000526020600020905b81546000191681526020019060010190808311612972575b50505050509050915091565b600080600060010260001916600160008860001916600019168152602001908152602001600020600001546000191614156129d45760009150612b5f565b60016000876000191660001916815260200190815260200160002060010160009054906101000a900473ffffffffffffffffffffffffffffffffffffffff1673ffffffffffffffffffffffffffffffffffffffff163373ffffffffffffffffffffffffffffffffffffffff1614158015612ab4575060016000876000191660001916815260200190815260200160002060020160003373ffffffffffffffffffffffffffffffffffffffff1673ffffffffffffffffffffffffffffffffffffffff16815260200190815260200160002060009054906101000a900460ff16155b15612ac25760009150612b5f565b6000600102600019166001600088600019166000191681526020019081526020016000206006016000876000191660001916815260200190815260200160002060000154600019161415612b195760009150612b5f565b600090505b83839050811015612b5a57612b4c86868686858181101515612b3c57fe5b90506020020135600019166143b3565b508080600101915050612b1e565b600191505b50949350505050565b612b70615210565b6002805480602002602001604051908101604052809291908181526020018280548015612bc057602002820191906000526020600020905b81546000191681526020019060010190808311612ba8575b5050505050905090565b6000612bd4615210565b60006001026000191660016000856000191660001916815260200190815260200160002060000154600019161415612c0f5760009150612c87565b60019150600160008460001916600019168152602001908152602001600020600401805480602002602001604051908101604052809291908181526020018280548015612c7f57602002820191906000526020600020905b81546000191681526020019060010190808311612c67575b505050505090505b915091565b60008060006001026000191660016000886000191660001916815260200190815260200160002060000154600019161415612cca5760009150612e56565b60016000876000191660001916815260200190815260200160002060010160009054906101000a900473ffffffffffffffffffffffffffffffffffffffff1673ffffffffffffffffffffffffffffffffffffffff163373ffffffffffffffffffffffffffffffffffffffff1614158015612daa575060016000876000191660001916815260200190815260200160002060020160003373ffffffffffffffffffffffffffffffffffffffff1673ffffffffffffffffffffffffffffffffffffffff16815260200190815260200160002060009054906101000a900460ff16155b15612db85760009150612e56565b600060010260001916600160008860001916600019168152602001908152602001600020600601600087600019166000191681526020019081526020016000206000015460001916141515612e105760009150612e56565b600090505b83839050811015612e5157612e4386868686858181101515612e3357fe5b9050602002013560001916614c89565b508080600101915050612e15565b600191505b50949350505050565b6000612e696154cf565b60008060010260001916600160008b6000191660001916815260200190815260200160002060000154600019161415612ea557600092506132a4565b600160008a6000191660001916815260200190815260200160002060010160009054906101000a900473ffffffffffffffffffffffffffffffffffffffff1673ffffffffffffffffffffffffffffffffffffffff163373ffffffffffffffffffffffffffffffffffffffff1614158015612f855750600160008a6000191660001916815260200190815260200160002060020160003373ffffffffffffffffffffffffffffffffffffffff1673ffffffffffffffffffffffffffffffffffffffff16815260200190815260200160002060009054906101000a900460ff16155b15612f9357600092506132a4565b600060010260001916600160008b6000191660001916815260200190815260200160002060050160008a600019166000191681526020019081526020016000206000015460001916141515612feb57600092506132a4565b81600160008b6000191660001916815260200190815260200160002060050160008a60001916600019168152602001908152602001600020600082015181600001906000191690556020820151816001019060001916905560408201518160020160006101000a81548173ffffffffffffffffffffffffffffffffffffffff021916908373ffffffffffffffffffffffffffffffffffffffff16021790555060608201518160030190805190602001906130a6929190615346565b506080820151816005015590505087600160008b6000191660001916815260200190815260200160002060050160008a60001916600019168152602001908152602001600020600001816000191690555086600160008b6000191660001916815260200190815260200160002060050160008a60001916600019168152602001908152602001600020600101816000191690555085600160008b6000191660001916815260200190815260200160002060050160008a6000191660001916815260200190815260200160002060020160006101000a81548173ffffffffffffffffffffffffffffffffffffffff021916908373ffffffffffffffffffffffffffffffffffffffff160217905550600160008a6000191660001916815260200190815260200160002060030180549050600160008b6000191660001916815260200190815260200160002060050160008a6000191660001916815260200190815260200160002060050181905550600160008a6000191660001916815260200190815260200160002060030180548060010182816132439190615399565b916000526020600020900160008a90919091509060001916905550600090505b8484905081101561329f576132918989878785818110151561328157fe5b905060200201356000191661481e565b508080600101915050613263565b600192505b50509695505050505050565b600080600080600060010260001916600160008860001916600019168152602001908152602001600020600001546000191614156132f157600093506136c2565b60016000876000191660001916815260200190815260200160002060010160009054906101000a900473ffffffffffffffffffffffffffffffffffffffff1673ffffffffffffffffffffffffffffffffffffffff163373ffffffffffffffffffffffffffffffffffffffff16141580156133d1575060016000876000191660001916815260200190815260200160002060020160003373ffffffffffffffffffffffffffffffffffffffff1673ffffffffffffffffffffffffffffffffffffffff16815260200190815260200160002060009054906101000a900460ff16155b156133df57600093506136c2565b600060010260001916600160008860001916600019168152602001908152602001600020600501600087600019166000191681526020019081526020016000206000015460001916141561343657600093506136c2565b600092505b60016000876000191660001916815260200190815260200160002060050160008660001916600019168152602001908152602001600020600301805490508310156134eb576134dd8686600160008a6000191660001916815260200190815260200160002060050160008960001916600019168152602001908152602001600020600301868154811015156134cc57fe5b906000526020600020900154613e2c565b50828060010193505061343b565b6001600087600019166000191681526020019081526020016000206005016000866000191660001916815260200190815260200160002060050154915060016000876000191660001916815260200190815260200160002060030160018060008960001916600019168152602001908152602001600020600301805490500381548110151561357657fe5b906000526020600020900154905080600160008860001916600019168152602001908152602001600020600301838154811015156135b057fe5b9060005260206000209001816000191690555081600160008860001916600019168152602001908152602001600020600501600083600019166000191681526020019081526020016000206005018190555060016000876000191660001916815260200190815260200160002060030180548091906001900361363391906152a4565b506001600087600019166000191681526020019081526020016000206005016000866000191660001916815260200190815260200160002060008082016000905560018201600090556002820160006101000a81549073ffffffffffffffffffffffffffffffffffffffff02191690556003820160006136b391906152d0565b60058201600090555050600193505b50505092915050565b6000806000600102600019166001600087600019166000191681526020019081526020016000206000015460001916141561370957600091506138b7565b60016000866000191660001916815260200190815260200160002060010160009054906101000a900473ffffffffffffffffffffffffffffffffffffffff1673ffffffffffffffffffffffffffffffffffffffff163373ffffffffffffffffffffffffffffffffffffffff16141580156137e9575060016000866000191660001916815260200190815260200160002060020160003373ffffffffffffffffffffffffffffffffffffffff1673ffffffffffffffffffffffffffffffffffffffff16815260200190815260200160002060009054906101000a900460ff16155b156137f757600091506138b7565b600090505b838390508110156138b25760006001600087600019166000191681526020019081526020016000206002016000868685818110151561383757fe5b9050602002013573ffffffffffffffffffffffffffffffffffffffff1673ffffffffffffffffffffffffffffffffffffffff1673ffffffffffffffffffffffffffffffffffffffff16815260200190815260200160002060006101000a81548160ff02191690831515021790555080806001019150506137fc565b600191505b509392505050565b600080600060010260001916600160008760001916600019168152602001908152602001600020600001546000191614156138fd5760009150613aaa565b60016000866000191660001916815260200190815260200160002060010160009054906101000a900473ffffffffffffffffffffffffffffffffffffffff1673ffffffffffffffffffffffffffffffffffffffff163373ffffffffffffffffffffffffffffffffffffffff16141580156139dd575060016000866000191660001916815260200190815260200160002060020160003373ffffffffffffffffffffffffffffffffffffffff1673ffffffffffffffffffffffffffffffffffffffff16815260200190815260200160002060009054906101000a900460ff16155b156139eb5760009150613aaa565b600090505b83839050811015613aa5576001806000876000191660001916815260200190815260200160002060020160008686858181101515613a2a57fe5b9050602002013573ffffffffffffffffffffffffffffffffffffffff1673ffffffffffffffffffffffffffffffffffffffff1673ffffffffffffffffffffffffffffffffffffffff16815260200190815260200160002060006101000a81548160ff02191690831515021790555080806001019150506139f0565b600191505b509392505050565b6000806001026000191660016000856000191660001916815260200190815260200160002060000154600019161415613aee5760009050613bcc565b60016000846000191660001916815260200190815260200160002060010160009054906101000a900473ffffffffffffffffffffffffffffffffffffffff1673ffffffffffffffffffffffffffffffffffffffff163373ffffffffffffffffffffffffffffffffffffffff16141515613b6a5760009050613bcc565b8160016000856000191660001916815260200190815260200160002060010160006101000a81548173ffffffffffffffffffffffffffffffffffffffff021916908373ffffffffffffffffffffffffffffffffffffffff160217905550600190505b92915050565b6000806000613bdf615521565b613be7615210565b60006001026000191660016000896000191660001916815260200190815260200160002060000154600019161415613c225760009450613e22565b6000600102600019166001600089600019166000191681526020019081526020016000206006016000886000191660001916815260200190815260200160002060000154600019161415613c795760009450613e22565b6001945085935060016000886000191660001916815260200190815260200160002060060160008760001916600019168152602001908152602001600020600101549250600160008860001916600019168152602001908152602001600020600601600087600019166000191681526020019081526020016000206002018054600181600116156101000203166002900480601f016020809104026020016040519081016040528092919081815260200182805460018160011615610100020316600290048015613d8b5780601f10613d6057610100808354040283529160200191613d8b565b820191906000526020600020905b815481529060010190602001808311613d6e57829003601f168201915b5050505050915060016000886000191660001916815260200190815260200160002060060160008760001916600019168152602001908152602001600020600301805480602002602001604051908101604052809291908181526020018280548015613e1a57602002820191906000526020600020905b81546000191681526020019060010190808311613e02575b505050505090505b9295509295909350565b600080600080600080600060010260001916600160008b6000191660001916815260200190815260200160002060050160008a600019166000191681526020019081526020016000206004016000896000191660001916815260200190815260200160002060000154600019161415613ea857600195506143a7565b600160008a600019166000191681526020019081526020016000206005016000896000191660001916815260200190815260200160002060040160008860001916600019168152602001908152602001600020600101549450600160008a600019166000191681526020019081526020016000206005016000896000191660001916815260200190815260200160002060030160018060008c6000191660001916815260200190815260200160002060050160008b600019166000191681526020019081526020016000206003018054905003815481101515613f8757fe5b906000526020600020900154935083600160008b6000191660001916815260200190815260200160002060050160008a6000191660001916815260200190815260200160002060030186815481101515613fdd57fe5b9060005260206000209001816000191690555084600160008b6000191660001916815260200190815260200160002060050160008a600019166000191681526020019081526020016000206004016000866000191660001916815260200190815260200160002060010181905550600160008a600019166000191681526020019081526020016000206005016000896000191660001916815260200190815260200160002060030180548091906001900361409891906152a4565b50600160008a6000191660001916815260200190815260200160002060050160008960001916600019168152602001908152602001600020600401600088600019166000191681526020019081526020016000206002015494506001600460008960001916600019168152602001908152602001600020600101805490500392506004600088600019166000191681526020019081526020016000206001018381548110151561414457fe5b9060005260206000209001546004600089600019166000191681526020019081526020016000206001018681548110151561417b57fe5b90600052602060002090018160001916905550600460008860001916600019168152602001908152602001600020600201838154811015156141b957fe5b906000526020600020900154600460008960001916600019168152602001908152602001600020600201868154811015156141f057fe5b906000526020600020900181600019169055506004600088600019166000191681526020019081526020016000206001018581548110151561422e57fe5b90600052602060002090015491506004600088600019166000191681526020019081526020016000206002018581548110151561426757fe5b90600052602060002090015490508460016000846000191660001916815260200190815260200160002060050160008360001916600019168152602001908152602001600020600401600089600019166000191681526020019081526020016000206002018190555060046000886000191660001916815260200190815260200160002060010180548091906001900361430191906152a4565b5060046000886000191660001916815260200190815260200160002060020180548091906001900361433391906152a4565b50600160008a600019166000191681526020019081526020016000206005016000896000191660001916815260200190815260200160002060040160008860001916600019168152602001908152602001600020600080820160009055600182016000905560028201600090555050600195505b50505050509392505050565b60006143bd615535565b6143c561555a565b600060010260001916600160008860001916600019168152602001908152602001600020600601600087600019166000191681526020019081526020016000206004016000866000191660001916815260200190815260200160002060000154600019161415156144395760019250614815565b81600160008860001916600019168152602001908152602001600020600601600087600019166000191681526020019081526020016000206004016000866000191660001916815260200190815260200160002060008201518160000190600019169055602082015181600101556040820151816002015590505083600160008860001916600019168152602001908152602001600020600601600087600019166000191681526020019081526020016000206004016000866000191660001916815260200190815260200160002060000181600019169055506001600087600019166000191681526020019081526020016000206006016000866000191660001916815260200190815260200160002060030180549050600160008860001916600019168152602001908152602001600020600601600087600019166000191681526020019081526020016000206004016000866000191660001916815260200190815260200160002060010181905550600560008560001916600019168152602001908152602001600020600101805490506001600088600019166000191681526020019081526020016000206006016000876000191660001916815260200190815260200160002060040160008660001916600019168152602001908152602001600020600201819055506001600087600019166000191681526020019081526020016000206006016000866000191660001916815260200190815260200160002060030180548060010182816146739190615399565b91600052602060002090016000869091909150906000191690555060056000856000191660001916815260200190815260200160002060000160009054906101000a900460ff16151561477a5760018160000190151590811515815250508060056000866000191660001916815260200190815260200160002060008201518160000160006101000a81548160ff0219169083151502179055506020820151816001019080519060200190614729929190615346565b506040820151816002019080519060200190614746929190615346565b509050506003805480600101828161475e9190615399565b9160005260206000209001600086909190915090600019169055505b60056000856000191660001916815260200190815260200160002060010180548060010182816147aa9190615399565b91600052602060002090016000889091909150906000191690555060056000856000191660001916815260200190815260200160002060020180548060010182816147f59190615399565b916000526020600020900160008790919091509060001916905550600192505b50509392505050565b6000614828615535565b61483061555a565b600060010260001916600160008860001916600019168152602001908152602001600020600501600087600019166000191681526020019081526020016000206004016000866000191660001916815260200190815260200160002060000154600019161415156148a45760019250614c80565b8160016000886000191660001916815260200190815260200160002060050160008760001916600019168152602001908152602001600020600401600086600019166000191681526020019081526020016000206000820151816000019060001916905560208201518160010155604082015181600201559050508360016000886000191660001916815260200190815260200160002060050160008760001916600019168152602001908152602001600020600401600086600019166000191681526020019081526020016000206000018160001916905550600160008760001916600019168152602001908152602001600020600501600086600019166000191681526020019081526020016000206003018054905060016000886000191660001916815260200190815260200160002060050160008760001916600019168152602001908152602001600020600401600086600019166000191681526020019081526020016000206001018190555060046000856000191660001916815260200190815260200160002060010180549050600160008860001916600019168152602001908152602001600020600501600087600019166000191681526020019081526020016000206004016000866000191660001916815260200190815260200160002060020181905550600160008760001916600019168152602001908152602001600020600501600086600019166000191681526020019081526020016000206003018054806001018281614ade9190615399565b91600052602060002090016000869091909150906000191690555060046000856000191660001916815260200190815260200160002060000160009054906101000a900460ff161515614be55760018160000190151590811515815250508060046000866000191660001916815260200190815260200160002060008201518160000160006101000a81548160ff0219169083151502179055506020820151816001019080519060200190614b94929190615346565b506040820151816002019080519060200190614bb1929190615346565b5090505060028054806001018281614bc99190615399565b9160005260206000209001600086909190915090600019169055505b6004600085600019166000191681526020019081526020016000206001018054806001018281614c159190615399565b9160005260206000209001600088909190915090600019169055506004600085600019166000191681526020019081526020016000206002018054806001018281614c609190615399565b916000526020600020900160008790919091509060001916905550600192505b50509392505050565b600080600080600080600060010260001916600160008b6000191660001916815260200190815260200160002060060160008a600019166000191681526020019081526020016000206004016000896000191660001916815260200190815260200160002060000154600019161415614d055760019550615204565b600160008a600019166000191681526020019081526020016000206006016000896000191660001916815260200190815260200160002060040160008860001916600019168152602001908152602001600020600101549450600160008a600019166000191681526020019081526020016000206006016000896000191660001916815260200190815260200160002060030160018060008c6000191660001916815260200190815260200160002060060160008b600019166000191681526020019081526020016000206003018054905003815481101515614de457fe5b906000526020600020900154935083600160008b6000191660001916815260200190815260200160002060060160008a6000191660001916815260200190815260200160002060030186815481101515614e3a57fe5b9060005260206000209001816000191690555084600160008b6000191660001916815260200190815260200160002060060160008a600019166000191681526020019081526020016000206004016000866000191660001916815260200190815260200160002060010181905550600160008a6000191660001916815260200190815260200160002060060160008960001916600019168152602001908152602001600020600301805480919060019003614ef591906152a4565b50600160008a60001916600019168152602001908152602001600020600601600089600019166000191681526020019081526020016000206004016000886000191660001916815260200190815260200160002060020154945060016005600089600019166000191681526020019081526020016000206001018054905003925060056000886000191660001916815260200190815260200160002060010183815481101515614fa157fe5b90600052602060002090015460056000896000191660001916815260200190815260200160002060010186815481101515614fd857fe5b906000526020600020900181600019169055506005600088600019166000191681526020019081526020016000206002018381548110151561501657fe5b9060005260206000209001546005600089600019166000191681526020019081526020016000206002018681548110151561504d57fe5b906000526020600020900181600019169055506005600088600019166000191681526020019081526020016000206001018581548110151561508b57fe5b9060005260206000209001549150600560008860001916600019168152602001908152602001600020600201858154811015156150c457fe5b90600052602060002090015490508460016000846000191660001916815260200190815260200160002060060160008360001916600019168152602001908152602001600020600401600089600019166000191681526020019081526020016000206002018190555060056000886000191660001916815260200190815260200160002060010180548091906001900361515e91906152a4565b5060056000886000191660001916815260200190815260200160002060020180548091906001900361519091906152a4565b50600160008a600019166000191681526020019081526020016000206006016000896000191660001916815260200190815260200160002060040160008860001916600019168152602001908152602001600020600080820160009055600182016000905560028201600090555050600195505b50505050509392505050565b602060405190810160405280600081525090565b828054600181600116156101000203166002900490600052602060002090601f016020900481019282601f1061526557803560ff1916838001178555615293565b82800160010185558215615293579182015b82811115615292578235825591602001919060010190615277565b5b5090506152a0919061558a565b5090565b8154818355818115116152cb578183600052602060002091820191016152ca91906155af565b5b505050565b50805460008255906000526020600020908101906152ee91906155af565b50565b60a06040519081016040528060008019168152602001600073ffffffffffffffffffffffffffffffffffffffff16815260200161532c6155d4565b81526020016153396155d4565b8152602001600081525090565b828054828255906000526020600020908101928215615388579160200282015b82811115615387578251829060001916905591602001919060010190615366565b5b50905061539591906155af565b5090565b8154818355818115116153c0578183600052602060002091820191016153bf91906155af565b5b505050565b60a06040519081016040528060008019168152602001600080191681526020016153ed6155e8565b81526020016153fa6155d4565b8152602001600081525090565b828054600181600116156101000203166002900490600052602060002090601f016020900481019282601f1061544857805160ff1916838001178555615476565b82800160010185558215615476579182015b8281111561547557825182559160200191906001019061545a565b5b509050615483919061558a565b5090565b50805460018160011615610100020316600290046000825580601f106154ad57506154cc565b601f0160209004906000526020600020908101906154cb919061558a565b5b50565b60a0604051908101604052806000801916815260200160008019168152602001600073ffffffffffffffffffffffffffffffffffffffff1681526020016155146155d4565b8152602001600081525090565b602060405190810160405280600081525090565b6060604051908101604052806000801916815260200160008152602001600081525090565b6060604051908101604052806000151581526020016155776155d4565b81526020016155846155d4565b81525090565b6155ac91905b808211156155a8576000816000905550600101615590565b5090565b90565b6155d191905b808211156155cd5760008160009055506001016155b5565b5090565b90565b602060405190810160405280600081525090565b6020604051908101604052806000815250905600a165627a7a723058205deaded39aaa6e3be9aecb059a13bab4a4704ce08beeedb3329860add1243b4b0029",
  "source": "pragma solidity ^0.4.21;\n\nimport \"./IRegistry.sol\";\n\ncontract Registry is IRegistry {\n\n    struct OrganizationRegistration {\n        bytes32 organizationName;\n        address owner;\n        mapping(address => bool) members;\n\n        bytes32[] serviceKeys;\n        bytes32[] typeRepoKeys;\n        mapping(bytes32 => ServiceRegistration) servicesByName;\n        mapping(bytes32 => TypeRepositoryRegistration) typeReposByName;\n\n        uint globalOrgIndex;\n    }\n\n    struct ServiceRegistration {\n        bytes32 serviceName;\n        bytes32 servicePath;\n        address agentAddress;\n\n        bytes32[] tags;\n        mapping(bytes32 => Tag) tagsByName;\n\n        uint orgServiceIndex;\n    }\n\n    struct TypeRepositoryRegistration {\n        bytes32 repositoryName;\n        bytes32 repositoryPath;\n        bytes repositoryURI;\n\n        bytes32[] tags;\n        mapping(bytes32 => Tag) tagsByName;\n\n        uint orgTypeRepoIndex;\n    }\n\n    struct Tag {\n        bytes32 tagName;\n        uint itemTagIndex;\n        uint globalTagIndex;\n    }\n\n    struct ServiceOrTypeRepositoryList {\n        bool valid;\n        bytes32[] orgNames;\n        bytes32[] itemNames;\n    }\n\n    bytes32[] orgKeys;\n    mapping(bytes32 => OrganizationRegistration) orgsByName;\n\n    bytes32[] serviceTags;\n    bytes32[] typeRepoTags;\n    mapping(bytes32 => ServiceOrTypeRepositoryList) servicesByTag;\n    mapping(bytes32 => ServiceOrTypeRepositoryList) typeReposByTag;\n\n\n    /*\n    *   Organization Management\n    */\n\n    function createOrganization(bytes32 orgName, address[] members) external returns (bool success) {\n\n        // check to see if this organization name is in use\n        if(orgsByName[orgName].organizationName != bytes32(0x0)) {\n            return false;\n        }\n\n        OrganizationRegistration memory organization;\n        orgsByName[orgName] = organization;\n        orgsByName[orgName].organizationName = orgName;\n        orgsByName[orgName].owner = msg.sender;\n        orgsByName[orgName].globalOrgIndex = orgKeys.length;\n        orgKeys.push(orgName);\n\n        for(uint i = 0; i < members.length; i++){\n            orgsByName[orgName].members[members[i]] = true;\n        }\n\n        return true;\n    }\n\n    function changeOrganizationOwner(bytes32 orgName, address newOwner) external returns (bool success) {\n\n        // check to see if this organization exists\n        if(orgsByName[orgName].organizationName == bytes32(0x0)) {\n            return false;\n        }\n\n        // validate owner\n        if(msg.sender != orgsByName[orgName].owner) {\n            return false;\n        }\n\n        orgsByName[orgName].owner = newOwner;\n        return true;\n    }\n\n    function addOrganizationMembers(bytes32 orgName, address[] newMembers) external returns (bool success)  {\n\n        // check to see if this organization exists\n        if(orgsByName[orgName].organizationName == bytes32(0x0)) {\n            return false;\n        }\n\n        // validate owner or member\n        if(msg.sender != orgsByName[orgName].owner && !orgsByName[orgName].members[msg.sender]) {\n            return false;\n        }\n\n        for(uint i = 0; i < newMembers.length; i++){\n            orgsByName[orgName].members[newMembers[i]] = true;\n        }\n        return true;\n    }\n\n    function removeOrganizationMembers(bytes32 orgName, address[] existingMembers) external returns (bool success) {\n\n        // check to see if this organization exists\n        if(orgsByName[orgName].organizationName == bytes32(0x0)) {\n            return false;\n        }\n\n        // validate owner or member\n        if(msg.sender != orgsByName[orgName].owner && !orgsByName[orgName].members[msg.sender]) {\n            return false;\n        }\n\n        for(uint i = 0; i < existingMembers.length; i++){\n            orgsByName[orgName].members[existingMembers[i]] = false;\n        }\n        return true;\n    }\n\n    function deleteOrganization(bytes32 orgName) external returns (bool success) {\n\n        // check to see if this organization exists\n        if(orgsByName[orgName].organizationName == bytes32(0x0)) {\n            return false;\n        }\n\n        if(msg.sender != orgsByName[orgName].owner) {\n            return false;\n        }\n\n        // swap lut entries\n        uint    indexToUpdate = orgsByName[orgName].globalOrgIndex;\n        bytes32 orgToUpdate   = orgKeys[orgKeys.length-1];\n\n        orgKeys[indexToUpdate] = orgToUpdate;\n        orgsByName[orgToUpdate].globalOrgIndex = indexToUpdate;\n        orgKeys.length--;\n\n        // delete contents of organization registration\n        delete orgsByName[orgName];\n\n        return true;\n    }\n\n\n    /*\n    *   Service Management\n    */\n\n    function createServiceRegistration(bytes32 orgName, bytes32 serviceName, bytes32 servicePath,\n        address agentAddress, bytes32[] tags) external returns (bool success) {\n\n        // check to see if this organization name exists\n        if(orgsByName[orgName].organizationName == bytes32(0x0)) {\n            return false;\n        }\n\n        // validate owner or member\n        if(msg.sender != orgsByName[orgName].owner && !orgsByName[orgName].members[msg.sender]) {\n            return false;\n        }\n\n        // check to see if this service name exists within the organization\n        if(orgsByName[orgName].servicesByName[serviceName].serviceName != bytes32(0x0)) {\n            return false;\n        }\n\n        ServiceRegistration memory service;\n        orgsByName[orgName].servicesByName[serviceName] = service;\n        orgsByName[orgName].servicesByName[serviceName].serviceName = serviceName;\n        orgsByName[orgName].servicesByName[serviceName].servicePath = servicePath;\n        orgsByName[orgName].servicesByName[serviceName].agentAddress = agentAddress;\n        orgsByName[orgName].servicesByName[serviceName].orgServiceIndex = orgsByName[orgName].serviceKeys.length;\n        orgsByName[orgName].serviceKeys.push(serviceName);\n\n        for(uint i = 0; i < tags.length; i++) {\n            addTagToServiceRegistration(orgName, serviceName, tags[i]);\n        }\n        return true;\n    }\n\n    function updateServiceRegistration(bytes32 orgName, bytes32 serviceName, bytes32 servicePath,\n        address agentAddress) external returns (bool success) {\n\n        // check to see if this organization name exists\n        if(orgsByName[orgName].organizationName == bytes32(0x0)) {\n            return false;\n        }\n\n        // validate owner or member\n        if(msg.sender != orgsByName[orgName].owner && !orgsByName[orgName].members[msg.sender]) {\n            return false;\n        }\n\n        // check to see if this service name exists within the organization\n        if(orgsByName[orgName].servicesByName[serviceName].serviceName == bytes32(0x0)) {\n            return false;\n        }\n\n        // update the servicePath and agentAddress\n        orgsByName[orgName].servicesByName[serviceName].servicePath = servicePath;\n        orgsByName[orgName].servicesByName[serviceName].agentAddress = agentAddress;\n\n        return true;\n    }\n\n    function addTagsToServiceRegistration(bytes32 orgName, bytes32 serviceName, bytes32[] tags) external returns (bool success) {\n\n        // check to see if this organization name exists\n        if(orgsByName[orgName].organizationName == bytes32(0x0)) {\n            return false;\n        }\n\n        // validate owner or member\n        if(msg.sender != orgsByName[orgName].owner && !orgsByName[orgName].members[msg.sender]) {\n            return false;\n        }\n\n        // check to see if this service name exists within the organization\n        if(orgsByName[orgName].servicesByName[serviceName].serviceName == bytes32(0x0)) {\n            return false;\n        }\n\n        for(uint i = 0; i < tags.length; i++) {\n            addTagToServiceRegistration(orgName, serviceName, tags[i]);\n        }\n        return true;\n    }\n\n    function addTagToServiceRegistration(bytes32 orgName, bytes32 serviceName, bytes32 tagName) internal returns (bool success) {\n\n        // check if this service already has this tag\n        if(orgsByName[orgName].servicesByName[serviceName].tagsByName[tagName].tagName != bytes32(0x0)) {\n            return true;\n        }\n\n        // add the service to the org level tag index\n        Tag memory tagObj;\n        orgsByName[orgName].servicesByName[serviceName].tagsByName[tagName] = tagObj;\n        orgsByName[orgName].servicesByName[serviceName].tagsByName[tagName].tagName = tagName;\n        orgsByName[orgName].servicesByName[serviceName].tagsByName[tagName].itemTagIndex = orgsByName[orgName].servicesByName[serviceName].tags.length;\n        orgsByName[orgName].servicesByName[serviceName].tagsByName[tagName].globalTagIndex = servicesByTag[tagName].orgNames.length;\n        orgsByName[orgName].servicesByName[serviceName].tags.push(tagName);\n\n        // add the service to the global tag index creating a list object for this tag if it does not already exist\n        if(!servicesByTag[tagName].valid) {\n            ServiceOrTypeRepositoryList memory listObj;\n            listObj.valid = true;\n            servicesByTag[tagName] = listObj;\n            serviceTags.push(tagName);\n        }\n        servicesByTag[tagName].orgNames.push(orgName);\n        servicesByTag[tagName].itemNames.push(serviceName);\n\n        return true;\n    }\n\n    function removeTagsFromServiceRegistration(bytes32 orgName, bytes32 serviceName, bytes32[] tags) external returns (bool success) {\n\n        // check to see if this organization name exists\n        if(orgsByName[orgName].organizationName == bytes32(0x0)) {\n            return false;\n        }\n\n        // validate owner or member\n        if(msg.sender != orgsByName[orgName].owner && !orgsByName[orgName].members[msg.sender]) {\n            return false;\n        }\n\n        // check to see if this service name exists within the organization\n        if(orgsByName[orgName].servicesByName[serviceName].serviceName == bytes32(0x0)) {\n            return false;\n        }\n\n        for(uint i = 0; i < tags.length; i++) {\n            removeTagFromServiceRegistration(orgName, serviceName, tags[i]);\n        }\n        return true;\n    }\n\n    function removeTagFromServiceRegistration(bytes32 orgName, bytes32 serviceName, bytes32 tagName) internal returns (bool success)  {\n\n        // check if this service has this tag\n        if(orgsByName[orgName].servicesByName[serviceName].tagsByName[tagName].tagName == bytes32(0x0)) {\n            return true;\n        }\n\n        // swap service registration lut entries\n        uint tagIndexToReplace = orgsByName[orgName].servicesByName[serviceName].tagsByName[tagName].itemTagIndex;\n        bytes32 tagNameToMove = orgsByName[orgName].servicesByName[serviceName].tags[orgsByName[orgName].servicesByName[serviceName].tags.length-1];\n\n        orgsByName[orgName].servicesByName[serviceName].tags[tagIndexToReplace] = tagNameToMove;\n        orgsByName[orgName].servicesByName[serviceName].tagsByName[tagNameToMove].itemTagIndex = tagIndexToReplace;\n        orgsByName[orgName].servicesByName[serviceName].tags.length--;\n\n        // swap global tag index lut entries\n        tagIndexToReplace = orgsByName[orgName].servicesByName[serviceName].tagsByName[tagName].globalTagIndex;\n        uint tagIndexToMove = servicesByTag[tagName].orgNames.length-1;\n\n        servicesByTag[tagName].orgNames[tagIndexToReplace] = servicesByTag[tagName].orgNames[tagIndexToMove];\n        servicesByTag[tagName].itemNames[tagIndexToReplace] = servicesByTag[tagName].itemNames[tagIndexToMove];\n\n        bytes32 orgToUpdate = servicesByTag[tagName].orgNames[tagIndexToReplace];\n        bytes32 itemToUpdate = servicesByTag[tagName].itemNames[tagIndexToReplace];\n        orgsByName[orgToUpdate].servicesByName[itemToUpdate].tagsByName[tagName].globalTagIndex = tagIndexToReplace;\n\n        servicesByTag[tagName].orgNames.length--;\n        servicesByTag[tagName].itemNames.length--;\n\n        // delete contents of the tag entry\n        delete orgsByName[orgName].servicesByName[serviceName].tagsByName[tagName];\n\n        return true;\n    }\n\n    function deleteServiceRegistration(bytes32 orgName, bytes32 serviceName) external returns (bool success) {\n\n        // check to see if this organization exists\n        if(orgsByName[orgName].organizationName == bytes32(0x0)) {\n            return false;\n        }\n\n        // validate owner or member\n        if(msg.sender != orgsByName[orgName].owner && !orgsByName[orgName].members[msg.sender]) {\n            return false;\n        }\n\n        // check to see if this service name exists within the organization\n        if(orgsByName[orgName].servicesByName[serviceName].serviceName == bytes32(0x0)) {\n            return false;\n        }\n\n        // delete the tags associated with the service\n        for(uint i = 0; i < orgsByName[orgName].servicesByName[serviceName].tags.length; i++) {\n            removeTagFromServiceRegistration(orgName, serviceName, orgsByName[orgName].servicesByName[serviceName].tags[i]);\n        }\n\n        // swap lut entries\n        uint    indexToUpdate   = orgsByName[orgName].servicesByName[serviceName].orgServiceIndex;\n        bytes32 serviceToUpdate = orgsByName[orgName].serviceKeys[orgsByName[orgName].serviceKeys.length-1];\n\n        orgsByName[orgName].serviceKeys[indexToUpdate] = serviceToUpdate;\n        orgsByName[orgName].servicesByName[serviceToUpdate].orgServiceIndex = indexToUpdate;\n        orgsByName[orgName].serviceKeys.length--;\n\n        // delete contents of service registration\n        delete orgsByName[orgName].servicesByName[serviceName];\n\n        return true;\n    }\n\n\n    /*\n    *   Type Repository Management\n    */\n\n    function createTypeRepositoryRegistration(bytes32 orgName, bytes32 repositoryName, bytes32 repositoryPath,\n        bytes repositoryURI, bytes32[] tags) external returns (bool success) {\n\n        // check to see if this organization name exists\n        if(orgsByName[orgName].organizationName == bytes32(0x0)) {\n            return false;\n        }\n\n        // validate owner or member\n        if(msg.sender != orgsByName[orgName].owner && !orgsByName[orgName].members[msg.sender]) {\n            return false;\n        }\n\n        // check to see if this repo name exists within the organization\n        if(orgsByName[orgName].typeReposByName[repositoryName].repositoryName != bytes32(0x0)) {\n            return false;\n        }\n\n        TypeRepositoryRegistration memory typeRepo;\n        orgsByName[orgName].typeReposByName[repositoryName] = typeRepo;\n        orgsByName[orgName].typeReposByName[repositoryName].repositoryName = repositoryName;\n        orgsByName[orgName].typeReposByName[repositoryName].repositoryPath = repositoryPath;\n        orgsByName[orgName].typeReposByName[repositoryName].repositoryURI = repositoryURI;\n        orgsByName[orgName].typeReposByName[repositoryName].orgTypeRepoIndex = orgsByName[orgName].typeRepoKeys.length;\n        orgsByName[orgName].typeRepoKeys.push(repositoryName);\n\n        for(uint i = 0; i < tags.length; i++) {\n            addTagToTypeRepositoryRegistration(orgName, repositoryName, tags[i]);\n        }\n        return true;\n    }\n\n    function updateTypeRepositoryRegistration(bytes32 orgName, bytes32 repositoryName, bytes32 repositoryPath,\n        bytes repositoryURI) external returns (bool success) {\n\n        // check to see if this organization name exists\n        if(orgsByName[orgName].organizationName == bytes32(0x0)) {\n            return false;\n        }\n\n        // validate owner or member\n        if(msg.sender != orgsByName[orgName].owner && !orgsByName[orgName].members[msg.sender]) {\n            return false;\n        }\n\n        // check to see if this repo name exists within the organization\n        if(orgsByName[orgName].typeReposByName[repositoryName].repositoryName == bytes32(0x0)) {\n            return false;\n        }\n\n        orgsByName[orgName].typeReposByName[repositoryName].repositoryPath = repositoryPath;\n        orgsByName[orgName].typeReposByName[repositoryName].repositoryURI = repositoryURI;\n\n        return true;\n    }\n\n    function addTagsToTypeRepositoryRegistration(bytes32 orgName, bytes32 repositoryName, bytes32[] tags) external returns(bool success) {\n\n        // check to see if this organization name exists\n        if(orgsByName[orgName].organizationName == bytes32(0x0)) {\n            return false;\n        }\n\n        // validate owner or member\n        if(msg.sender != orgsByName[orgName].owner && !orgsByName[orgName].members[msg.sender]) {\n            return false;\n        }\n\n        // check to see if this repo name exists within the organization\n        if(orgsByName[orgName].typeReposByName[repositoryName].repositoryName == bytes32(0x0)) {\n            return false;\n        }\n\n        for(uint i = 0; i < tags.length; i++) {\n            addTagToTypeRepositoryRegistration(orgName, repositoryName, tags[i]);\n        }\n        return true;\n    }\n\n    function addTagToTypeRepositoryRegistration(bytes32 orgName, bytes32 repositoryName, bytes32 tagName) internal returns (bool success) {\n\n        // check if this repo already has this tag\n        if(orgsByName[orgName].typeReposByName[repositoryName].tagsByName[tagName].tagName != bytes32(0x0)) {\n            return true;\n        }\n\n        // add the type repository to the org level tag index\n        Tag memory tagObj;\n        orgsByName[orgName].typeReposByName[repositoryName].tagsByName[tagName] = tagObj;\n        orgsByName[orgName].typeReposByName[repositoryName].tagsByName[tagName].tagName = tagName;\n        orgsByName[orgName].typeReposByName[repositoryName].tagsByName[tagName].itemTagIndex = orgsByName[orgName].typeReposByName[repositoryName].tags.length;\n        orgsByName[orgName].typeReposByName[repositoryName].tagsByName[tagName].globalTagIndex = typeReposByTag[tagName].orgNames.length;\n        orgsByName[orgName].typeReposByName[repositoryName].tags.push(tagName);\n\n        // add the type repository to the global tag index creating a list object for this tag if it does not already exist\n        if(!typeReposByTag[tagName].valid) {\n            ServiceOrTypeRepositoryList memory listObj;\n            listObj.valid = true;\n            typeReposByTag[tagName] = listObj;\n            typeRepoTags.push(tagName);\n        }\n        typeReposByTag[tagName].orgNames.push(orgName);\n        typeReposByTag[tagName].itemNames.push(repositoryName);\n\n        return true;\n    }\n\n    function removeTagsFromTypeRepositoryRegistration(bytes32 orgName, bytes32 repositoryName, bytes32[] tags) external returns (bool success) {\n\n        // check to see if this organization name exists\n        if(orgsByName[orgName].organizationName == bytes32(0x0)) {\n            return false;\n        }\n\n        // validate owner or member\n        if(msg.sender != orgsByName[orgName].owner && !orgsByName[orgName].members[msg.sender]) {\n            return false;\n        }\n\n        // check to see if this repo name exists within the organization\n        if(orgsByName[orgName].typeReposByName[repositoryName].repositoryName != bytes32(0x0)) {\n            return false;\n        }\n\n        for(uint i = 0; i < tags.length; i++) {\n            removeTagFromTypeRepositoryRegistration(orgName, repositoryName, tags[i]);\n        }\n        return true;\n    }\n\n    function removeTagFromTypeRepositoryRegistration(bytes32 orgName, bytes32 repositoryName, bytes32 tagName) internal returns (bool success) {\n\n        // check if this repo has this tag\n        if(orgsByName[orgName].typeReposByName[repositoryName].tagsByName[tagName].tagName == bytes32(0x0)) {\n            return true;\n        }\n\n        // swap lut entries\n        // swap service registration lut entries\n        uint tagIndexToReplace = orgsByName[orgName].typeReposByName[repositoryName].tagsByName[tagName].itemTagIndex;\n        bytes32 tagNameToMove = orgsByName[orgName].typeReposByName[repositoryName].tags[orgsByName[orgName].typeReposByName[repositoryName].tags.length-1];\n\n        orgsByName[orgName].typeReposByName[repositoryName].tags[tagIndexToReplace] = tagNameToMove;\n        orgsByName[orgName].typeReposByName[repositoryName].tagsByName[tagNameToMove].itemTagIndex = tagIndexToReplace;\n        orgsByName[orgName].typeReposByName[repositoryName].tags.length--;\n\n        // swap global tag index lut entries\n        tagIndexToReplace = orgsByName[orgName].typeReposByName[repositoryName].tagsByName[tagName].globalTagIndex;\n        uint tagIndexToMove = typeReposByTag[tagName].orgNames.length-1;\n\n        typeReposByTag[tagName].orgNames[tagIndexToReplace] = typeReposByTag[tagName].orgNames[tagIndexToMove];\n        typeReposByTag[tagName].itemNames[tagIndexToReplace] = typeReposByTag[tagName].itemNames[tagIndexToMove];\n\n        bytes32 orgToUpdate = typeReposByTag[tagName].orgNames[tagIndexToReplace];\n        bytes32 itemToUpdate = typeReposByTag[tagName].itemNames[tagIndexToReplace];\n        orgsByName[orgToUpdate].typeReposByName[itemToUpdate].tagsByName[tagName].globalTagIndex = tagIndexToReplace;\n\n        typeReposByTag[tagName].orgNames.length--;\n        typeReposByTag[tagName].itemNames.length--;\n\n        // delete contents of the tag entry\n        delete orgsByName[orgName].typeReposByName[repositoryName].tagsByName[tagName];\n\n        return true;\n    }\n\n    function deleteTypeRepositoryRegistration(bytes32 orgName, bytes32 repositoryName) external returns(bool success) {\n\n        // check to see if this organization exists\n        if(orgsByName[orgName].organizationName == bytes32(0x0)) {\n            return false;\n        }\n\n        // validate owner or member\n        if(msg.sender != orgsByName[orgName].owner && !orgsByName[orgName].members[msg.sender]) {\n            return false;\n        }\n\n        // check to see if this repo name exists within the organization\n        if(orgsByName[orgName].typeReposByName[repositoryName].repositoryName == bytes32(0x0)) {\n            return false;\n        }\n\n        // delete the tags associated with the type repo\n        for(uint i = 0; i < orgsByName[orgName].typeReposByName[repositoryName].tags.length; i++) {\n            removeTagFromTypeRepositoryRegistration(orgName, repositoryName, orgsByName[orgName].typeReposByName[repositoryName].tags[i]);\n        }\n\n        // swap lut entries\n        uint    indexToUpdate    = orgsByName[orgName].typeReposByName[repositoryName].orgTypeRepoIndex;\n        bytes32 typeRepoToUpdate = orgsByName[orgName].typeRepoKeys[orgsByName[orgName].typeRepoKeys.length-1];\n\n        orgsByName[orgName].typeRepoKeys[indexToUpdate] = typeRepoToUpdate;\n        orgsByName[orgName].typeReposByName[typeRepoToUpdate].orgTypeRepoIndex = indexToUpdate;\n        orgsByName[orgName].typeRepoKeys.length--;\n\n        // delete contents of repo registration\n        delete orgsByName[orgName].typeReposByName[repositoryName];\n\n        return true;\n    }\n\n\n    /*\n    *   List and Retrieval Functions\n    */\n\n    function listOrganizations() external view returns(bytes32[] orgNames) {\n        return orgKeys;\n    }\n\n    function getOrganizationByName(bytes32 orgName) external view\n        returns(bool found, bytes32 name, address owner, bytes32[] serviceNames, bytes32[] repositoryNames) {\n\n        // check to see if this organization exists\n        if(orgsByName[orgName].organizationName == bytes32(0x0)) {\n            found = false;\n            return;\n        }\n\n        found = true;\n        name = orgsByName[orgName].organizationName;\n        owner = orgsByName[orgName].owner;\n        serviceNames = orgsByName[orgName].serviceKeys;\n        repositoryNames = orgsByName[orgName].typeRepoKeys;\n    }\n\n    function listServicesForOrganization(bytes32 orgName) external view returns(bool found, bytes32[] serviceNames) {\n\n        // check to see if this organization exists\n        if(orgsByName[orgName].organizationName == bytes32(0x0)) {\n            found = false;\n            return;\n        }\n\n        found = true;\n        serviceNames = orgsByName[orgName].serviceKeys;\n    }\n\n    function getServiceRegistrationByName(bytes32 orgName, bytes32 serviceName) external view\n        returns(bool found, bytes32 name, bytes32 path, address agentAddress, bytes32[] tags) {\n\n        // check to see if this organization exists\n        if(orgsByName[orgName].organizationName == bytes32(0x0)) {\n            found = false;\n            return;\n        }\n\n        // check to see if this repo exists\n        if(orgsByName[orgName].servicesByName[serviceName].serviceName == bytes32(0x0)) {\n            found = false;\n            return;\n        }\n\n        found = true;\n        name = orgsByName[orgName].servicesByName[serviceName].serviceName;\n        path = orgsByName[orgName].servicesByName[serviceName].servicePath;\n        agentAddress = orgsByName[orgName].servicesByName[serviceName].agentAddress;\n        tags = orgsByName[orgName].servicesByName[serviceName].tags;\n    }\n\n    function listTypeRepositoriesForOrganization(bytes32 orgName) external view returns(bool found, bytes32[] repositoryNames) {\n\n        // check to see if this organization exists\n        if(orgsByName[orgName].organizationName == bytes32(0x0)) {\n            found = false;\n            return;\n        }\n\n        found = true;\n        repositoryNames = orgsByName[orgName].typeRepoKeys;\n    }\n\n    function getTypeRepositoryByName(bytes32 orgName, bytes32 repositoryName) external view\n        returns (bool found, bytes32 name, bytes32 path, bytes uri, bytes32[] tags) {\n\n        // check to see if this organization exists\n        if(orgsByName[orgName].organizationName == bytes32(0x0)) {\n            found = false;\n            return;\n        }\n\n        // check to see if this repo exists\n        if(orgsByName[orgName].typeReposByName[repositoryName].repositoryName == bytes32(0x0)) {\n            found = false;\n            return;\n        }\n\n        found = true;\n        name = repositoryName;\n        path = orgsByName[orgName].typeReposByName[repositoryName].repositoryPath;\n        uri = orgsByName[orgName].typeReposByName[repositoryName].repositoryURI;\n        tags = orgsByName[orgName].typeReposByName[repositoryName].tags;\n    }\n\n    function listServiceTags() external view returns(bytes32[] tags) {\n        return serviceTags;\n    }\n\n    function listServicesForTag(bytes32 tag) external view returns(bytes32[] orgNames, bytes32[] serviceNames) {\n        orgNames = servicesByTag[tag].orgNames;\n        serviceNames = servicesByTag[tag].itemNames;\n    }\n\n    function listTypeRepositoryTags() external view returns(bytes32[] tags) {\n        return typeRepoTags;\n    }\n\n    function listTypeRepositoriesForTag(bytes32 tag) external view returns(bytes32[] orgNames, bytes32[] repositoryNames) {\n        orgNames = typeReposByTag[tag].orgNames;\n        repositoryNames = typeReposByTag[tag].itemNames;\n    }\n}\n",
  "sourcePath": "/Users/valerio.versace/repo/SingularityNET/alpha-blockchain/contracts/Registry.sol",
  "compiler": {
    "name": "solc",
    "version": "0.4.21+commit.dfe3193c.Emscripten.clang"
  },
  "schemaVersion": "2.0.0",
  "updatedAt": "2018-07-11T19:23:09.977Z"
}