{
  "contractName": "Registry",
  "abi": [
    {
      "constant": true,
      "inputs": [
        {
          "name": "",
          "type": "bytes32"
        }
      ],
      "name": "agentIndex",
      "outputs": [
        {
          "name": "",
          "type": "uint256"
        }
      ],
      "payable": false,
      "stateMutability": "view",
      "type": "function"
    },
    {
      "constant": true,
      "inputs": [
        {
          "name": "",
          "type": "uint256"
        }
      ],
      "name": "agentRecords",
      "outputs": [
        {
          "name": "agent",
          "type": "address"
        },
        {
          "name": "name",
          "type": "bytes32"
        },
        {
          "name": "state",
          "type": "uint8"
        }
      ],
      "payable": false,
      "stateMutability": "view",
      "type": "function"
    },
    {
      "inputs": [],
      "payable": false,
      "stateMutability": "nonpayable",
      "type": "constructor"
    },
    {
      "anonymous": false,
      "inputs": [
        {
          "indexed": false,
          "name": "name",
          "type": "bytes32"
        },
        {
          "indexed": false,
          "name": "agent",
          "type": "address"
        }
      ],
      "name": "RecordCreated",
      "type": "event"
    },
    {
      "anonymous": false,
      "inputs": [
        {
          "indexed": false,
          "name": "name",
          "type": "bytes32"
        },
        {
          "indexed": false,
          "name": "agent",
          "type": "address"
        }
      ],
      "name": "RecordUpdated",
      "type": "event"
    },
    {
      "anonymous": false,
      "inputs": [
        {
          "indexed": false,
          "name": "name",
          "type": "bytes32"
        }
      ],
      "name": "RecordDeprecated",
      "type": "event"
    },
    {
      "constant": false,
      "inputs": [
        {
          "name": "name",
          "type": "bytes32"
        },
        {
          "name": "agent",
          "type": "address"
        }
      ],
      "name": "createRecord",
      "outputs": [],
      "payable": false,
      "stateMutability": "nonpayable",
      "type": "function"
    },
    {
      "constant": false,
      "inputs": [
        {
          "name": "name",
          "type": "bytes32"
        },
        {
          "name": "agent",
          "type": "address"
        }
      ],
      "name": "updateRecord",
      "outputs": [],
      "payable": false,
      "stateMutability": "nonpayable",
      "type": "function"
    },
    {
      "constant": false,
      "inputs": [
        {
          "name": "name",
          "type": "bytes32"
        }
      ],
      "name": "deprecateRecord",
      "outputs": [],
      "payable": false,
      "stateMutability": "nonpayable",
      "type": "function"
    },
    {
      "constant": true,
      "inputs": [],
      "name": "listRecords",
      "outputs": [
        {
          "name": "",
          "type": "bytes32[]"
        },
        {
          "name": "",
          "type": "address[]"
        }
      ],
      "payable": false,
      "stateMutability": "view",
      "type": "function"
    }
  ],
  "bytecode": "0x608060405234801561001057600080fd5b506000606060405190810160405280600073ffffffffffffffffffffffffffffffffffffffff1681526020016000801916815260200160018081111561005257fe5b8152509080600181540180825580915050906001820390600052602060002090600302016000909192909190915060008201518160000160006101000a81548173ffffffffffffffffffffffffffffffffffffffff021916908373ffffffffffffffffffffffffffffffffffffffff1602179055506020820151816001019060001916905560408201518160020160006101000a81548160ff021916908360018111156100fb57fe5b0217905550505050610d52806101126000396000f300608060405260043610610078576000357c0100000000000000000000000000000000000000000000000000000000900463ffffffff168063182e8de51461007d5780631c7b94c0146100c2578063357cce2b14610113578063683b499e146101445780636fdcc8a914610195578063dc97c05614610249575b600080fd5b34801561008957600080fd5b506100ac60048036038101908080356000191690602001909291905050506102da565b6040518082815260200191505060405180910390f35b3480156100ce57600080fd5b506101116004803603810190808035600019169060200190929190803573ffffffffffffffffffffffffffffffffffffffff1690602001909291905050506102f2565b005b34801561011f57600080fd5b506101426004803603810190808035600019169060200190929190505050610640565b005b34801561015057600080fd5b506101936004803603810190808035600019169060200190929190803573ffffffffffffffffffffffffffffffffffffffff16906020019092919050505061085f565b005b3480156101a157600080fd5b506101aa610aeb565b604051808060200180602001838103835285818151815260200191508051906020019060200280838360005b838110156101f15780820151818401526020810190506101d6565b50505050905001838103825284818151815260200191508051906020019060200280838360005b83811015610233578082015181840152602081019050610218565b5050505090500194505050505060405180910390f35b34801561025557600080fd5b5061027460048036038101908080359060200190929190505050610cc0565b604051808473ffffffffffffffffffffffffffffffffffffffff1673ffffffffffffffffffffffffffffffffffffffff16815260200183600019166000191681526020018260018111156102c457fe5b60ff168152602001935050505060405180910390f35b60016020528060005260406000206000915090505481565b6000806001600085600019166000191681526020019081526020016000205491506000821415151561032357600080fd5b3290506000600181111561033357fe5b60008381548110151561034257fe5b906000526020600020906003020160020160009054906101000a900460ff16600181111561036c57fe5b14151561037857600080fd5b8073ffffffffffffffffffffffffffffffffffffffff1660008381548110151561039e57fe5b906000526020600020906003020160000160009054906101000a900473ffffffffffffffffffffffffffffffffffffffff1673ffffffffffffffffffffffffffffffffffffffff16638da5cb5b6040518163ffffffff167c0100000000000000000000000000000000000000000000000000000000028152600401602060405180830381600087803b15801561043357600080fd5b505af1158015610447573d6000803e3d6000fd5b505050506040513d602081101561045d57600080fd5b810190808051906020019092919050505073ffffffffffffffffffffffffffffffffffffffff1614151561049057600080fd5b8073ffffffffffffffffffffffffffffffffffffffff168373ffffffffffffffffffffffffffffffffffffffff16638da5cb5b6040518163ffffffff167c0100000000000000000000000000000000000000000000000000000000028152600401602060405180830381600087803b15801561050b57600080fd5b505af115801561051f573d6000803e3d6000fd5b505050506040513d602081101561053557600080fd5b810190808051906020019092919050505073ffffffffffffffffffffffffffffffffffffffff1614151561056857600080fd5b8260008381548110151561057857fe5b906000526020600020906003020160000160006101000a81548173ffffffffffffffffffffffffffffffffffffffff021916908373ffffffffffffffffffffffffffffffffffffffff1602179055507f0596aa396eab4e69aca55f612009f548a14767e50000a5446fbebc9dcc43820c84846040518083600019166000191681526020018273ffffffffffffffffffffffffffffffffffffffff1673ffffffffffffffffffffffffffffffffffffffff1681526020019250505060405180910390a150505050565b60006001600083600019166000191681526020019081526020016000205490506000811415151561067057600080fd5b6000600181111561067d57fe5b60008281548110151561068c57fe5b906000526020600020906003020160020160009054906101000a900460ff1660018111156106b657fe5b1415156106c257600080fd5b3273ffffffffffffffffffffffffffffffffffffffff166000828154811015156106e857fe5b906000526020600020906003020160000160009054906101000a900473ffffffffffffffffffffffffffffffffffffffff1673ffffffffffffffffffffffffffffffffffffffff16638da5cb5b6040518163ffffffff167c0100000000000000000000000000000000000000000000000000000000028152600401602060405180830381600087803b15801561077d57600080fd5b505af1158015610791573d6000803e3d6000fd5b505050506040513d60208110156107a757600080fd5b810190808051906020019092919050505073ffffffffffffffffffffffffffffffffffffffff161415156107da57600080fd5b60016000828154811015156107eb57fe5b906000526020600020906003020160020160006101000a81548160ff0219169083600181111561081757fe5b02179055507f8db2605b8396377de2aba41187338453d74f21e2b1d3cd2bcbad5a9de7e600198260405180826000191660001916815260200191505060405180910390a15050565b60006001600084600019166000191681526020019081526020016000205414151561088957600080fd5b3273ffffffffffffffffffffffffffffffffffffffff168173ffffffffffffffffffffffffffffffffffffffff16638da5cb5b6040518163ffffffff167c0100000000000000000000000000000000000000000000000000000000028152600401602060405180830381600087803b15801561090457600080fd5b505af1158015610918573d6000803e3d6000fd5b505050506040513d602081101561092e57600080fd5b810190808051906020019092919050505073ffffffffffffffffffffffffffffffffffffffff1614151561096157600080fd5b600160006060604051908101604052808473ffffffffffffffffffffffffffffffffffffffff16815260200185600019168152602001600060018111156109a457fe5b8152509080600181540180825580915050906001820390600052602060002090600302016000909192909190915060008201518160000160006101000a81548173ffffffffffffffffffffffffffffffffffffffff021916908373ffffffffffffffffffffffffffffffffffffffff1602179055506020820151816001019060001916905560408201518160020160006101000a81548160ff02191690836001811115610a4d57fe5b0217905550505003600160008460001916600019168152602001908152602001600020819055507ffc39d54de380118148fa225c58baeff6e4f590a1b85797533822b367bfe982c082826040518083600019166000191681526020018273ffffffffffffffffffffffffffffffffffffffff1673ffffffffffffffffffffffffffffffffffffffff1681526020019250505060405180910390a15050565b606080606080600080600160008054905003604051908082528060200260200182016040528015610b2b5781602001602082028038833980820191505090505b509350600160008054905003604051908082528060200260200182016040528015610b655781602001602082028038833980820191505090505b50925060009150600190505b600080549050811015610cb25760006001811115610b8b57fe5b600082815481101515610b9a57fe5b906000526020600020906003020160020160009054906101000a900460ff166001811115610bc457fe5b1415610ca557600081815481101515610bd957fe5b9060005260206000209060030201600101548483815181101515610bf957fe5b906020019060200201906000191690816000191681525050600081815481101515610c2057fe5b906000526020600020906003020160000160009054906101000a900473ffffffffffffffffffffffffffffffffffffffff168383815181101515610c6057fe5b9060200190602002019073ffffffffffffffffffffffffffffffffffffffff16908173ffffffffffffffffffffffffffffffffffffffff168152505081806001019250505b8080600101915050610b71565b838395509550505050509091565b600081815481101515610ccf57fe5b90600052602060002090600302016000915090508060000160009054906101000a900473ffffffffffffffffffffffffffffffffffffffff16908060010154908060020160009054906101000a900460ff169050835600a165627a7a72305820072841d8832697464925cf1196d549a525de638743dcaf84938aa32612e988f80029",
  "source": "pragma solidity ^0.4.21;\n\nimport \"./Agent.sol\";\n\ncontract Registry {\n    enum RecordState {\n        ALIVE,\n        DEAD\n    }\n\n    struct AgentRecord {\n        address agent;\n        bytes32 name;\n        RecordState state;\n    }\n\n    AgentRecord[] public agentRecords;\n    mapping(bytes32 => uint) public agentIndex;\n\n    event RecordCreated(bytes32 name, address agent);\n    event RecordUpdated(bytes32 name, address agent);\n    event RecordDeprecated(bytes32 name);\n\n    function Registry() public {\n        // The 0th index of this list cannot be used because of the fact that agentIndex[name] == 0 when\n        // name is *not* valid\n        agentRecords.push(AgentRecord(address(0), \"\", RecordState.DEAD));\n    }\n\n    function createRecord(bytes32 name, address agent) public {\n        require(agentIndex[name] == 0);\n        require(Agent(agent).owner() == tx.origin);\n        agentIndex[name] = agentRecords.push(AgentRecord(agent, name, RecordState.ALIVE)) - 1;\n        emit RecordCreated(name, agent);\n    }\n\n    function updateRecord(bytes32 name, address agent) public {\n        uint index = agentIndex[name];\n        require(index != 0);\n        address owner = tx.origin;\n        require(agentRecords[index].state == RecordState.ALIVE);\n        require(Agent(agentRecords[index].agent).owner() == owner);\n        require(Agent(agent).owner() == owner);\n        agentRecords[index].agent = agent;\n        emit RecordUpdated(name, agent);\n    }\n\n    function deprecateRecord(bytes32 name) public {\n        uint index = agentIndex[name];\n        require(index != 0);\n        require(agentRecords[index].state == RecordState.ALIVE);\n        require(Agent(agentRecords[index].agent).owner() == tx.origin);\n        agentRecords[index].state = RecordState.DEAD;\n        emit RecordDeprecated(name);\n    }\n\n    function listRecords() public view returns (bytes32[], address[]) {\n        bytes32[] memory names = new bytes32[](agentRecords.length - 1);\n        address[] memory agents = new address[](agentRecords.length - 1);\n        uint j = 0;\n        for (uint i = 1; i < agentRecords.length; i++) {\n            if (agentRecords[i].state == RecordState.ALIVE) {\n                names[j] = agentRecords[i].name;\n                agents[j] = agentRecords[i].agent;\n                j++;\n            }\n        }\n        return (names, agents);\n    }\n}\n",
  "sourcePath": "/Users/valerio.versace/repo/SingularityNET/alpha-blockchain/contracts/Registry.sol",
  "compiler": {
    "name": "solc",
    "version": "0.4.23+commit.124ca40d.Emscripten.clang"
  },
  "schemaVersion": "2.0.0",
  "updatedAt": "2018-05-20T21:41:43.652Z"
}